:020000040800F2
:1000000028090020C1010008BF2E0008B3260008FF
:10001000BD2E00088909000899370008000000007B
:10002000000000000000000000000000C12F0008D8
:10003000550A000800000000E12E00087530000895
:10004000DB010008DB010008DB010008DB01000820
:10005000DB010008DB010008DB010008DB01000810
:10006000DB010008DB010008DB010008DB01000800
:100070008D090008DB01000899090008DB01000870
:10008000DB010008DB010008DB010008DB010008E0
:10009000DB010008DB010008DB010008DB010008D0
:1000A000DB010008DB010008DB010008DB010008C0
:1000B000DB010008DB010008DB010008DB010008B0
:1000C000DB010008DB010008DB010008DB010008A0
:1000D000DB010008DB010008DB0100082D37000808
:1000E000DB010008DB010008DB010008DB01000880
:1000F000DB010008DB010008DB010008DB01000870
:10010000DB010008DB010008CD300008DB0100083E
:10011000DB010008DB010008DB010008DB0100084F
:10012000DB010008DB010008DB010008DB0100083F
:10013000DB010008DB010008DB010008DB0100082F
:10014000DB010008DB010008DB010008DB0100081F
:10015000DB010008DB010008DB010008DB0100080F
:10016000DB010008DB010008DB010008DB010008FF
:10017000DB010008DB010008DB01000800000000D3
:10018000DB010008DB010008DB010008DB010008DF
:10019000DB010008DB010008DB010008DB010008CF
:1001A000DB010008DB010008DB010008DFF80CD0F0
:1001B00000F020FB0048004785480008280900207F
:1001C0000648804706480047FEE7FEE7FEE7FEE7F1
:1001D000FEE7FEE7FEE7FEE7FEE7FEE77930000810
:1001E000AD01000840EA01039B0703D009E008C9FC
:1001F000121F08C0042AFAD203E011F8013B00F8EC
:10020000013B521EF9D27047D2B201E000F8012B37
:10021000491EFBD270470022F6E710B513460A4686
:1002200004461946FFF7F0FF204610BD70B506469C
:1002300003F0C4FA046805460A220021304600F0A3
:100240002BFA2C6070BD2DE9FE4F804681EA030039
:10025000C00F0C46009021F0004123F00045B8EBA0
:100260000200A94105D24046214690461C460B4655
:10027000024623F00040104347D0270DC7F30A0081
:10028000C3F30A510290401A019040286BDAC3F37D
:10029000130040F4801B0098924620B10023D2EB5B
:1002A000030A63EB0B0B01985946C0F1400250461C
:1002B00000F0C1F906460D4650465946019A00F035
:1002C000D9F910EB08006141002487EA115284EA51
:1002D000E7731A4340D0009A62B3019A012A4FEAA9
:1002E000075215DC001B61EB02014FF0004202EAED
:1002F0000752CDE90042001C41F5801132462B46E1
:1003000000F011FA03B0BDE8F08F40462146F9E74E
:10031000001B61EB0201001C41F5801300185B41DA
:100320002018A2F5001747EB030140EAD570B61973
:100330006D4111E06D084FEA360645EAC0754FEA97
:100340000752001B61EB0201001C41F580114908B6
:100350004FEA30000019514132462B4603B0BDE848
:10036000F04F00F0D1B90098012240000023D0EBFB
:10037000020263EBE073009821464FEAE074B8EBA9
:10038000000061EB0401E9E783F000435BE781F0E3
:10039000004158E72DE9FE4F81EA030404F00044D0
:1003A00021F0004100944FF0000B23F0004350EA8D
:1003B00001045ED052EA03045BD0C3F30A54C1F3D4
:1003C0000A552C44A4F2F3340194A0FB0254C1F367
:1003D000130141F48011C3F3130343F4801301FBB1
:1003E000024400FB034E840A970A44EA815447EA18
:1003F0008357A4FB076802958D0A05FB07854FEA22
:10040000932C04FB0C542705029D4FEA065847EA3B
:100410001637B5EB08056EEB070C870E920E47EA10
:10042000811742EA8312A7FB0201B6EB0B0164EBD2
:1004300000042B0D43EA0C335E1844EB1C50DA46E3
:100440005146E7FB0201C5F313044FEA0B3343EABD
:1004500014534FEA0432019C43EA0603A4F10C044E
:100460000294009CCDE900B400F05DF903B0BDE852
:10047000F08F00200146F9E72DE9F04D81EA0304F1
:1004800004F0004B21F0004514464FF0000A23F021
:10049000004150EA050220D054EA01021DD0C5F304
:1004A0000A570246C5F31303C1F31300C1F30A56FA
:1004B00040F4801543F48013A7EB0608101BD646C2
:1004C00008F2FD3873EB050002D308F1010801E0E2
:1004D00092185B41B8F1000F03DA00200146BDE835
:1004E000F08D00204FF48011064684460EE0171B65
:1004F00073EB050705D3121B63EB050306434CEAB8
:10050000010C49084FEA300092185B4150EA01079C
:10051000EDD152EA030012D082EA040083EA050119
:10052000084305D0101BAB4106D20122002306E090
:1005300000224FF0004302E06FF0010253101AEB6B
:1005400006004CEB085110EB0A0041EB0B01BDE833
:10055000F04D00F0D9B80EB5C10F80EAE070084444
:10056000CA07002140F233438DE80E000A460B46CD
:1005700000F0D9F803B000BD30B5041E71F10004DD
:1005800004DB4FF00044404264EB0101141E73F1A0
:10059000000405DB1C464FF00043524263EB0403AA
:1005A000994208BF904230BD30B50B46014600204D
:1005B0002022012409E021FA02F59D4205D303FA25
:1005C00002F5491B04FA02F52844151EA2F10102A6
:1005D000F1DC30BD2DE9F05F0546002092469B46D8
:1005E00088460646814640241BE028464146474649
:1005F000224600F02FF853465A46C01A914110D3B4
:1006000011461846224600F016F82D1A67EB01082D
:100610004F4622460120002100F00DF817EB00099B
:100620004E41201EA4F10104DFDC484631462A4633
:100630004346BDE8F09F202A04DB203A00FA02F18D
:10064000002070479140C2F1200320FA03F31943C0
:1006500090407047202A04DB203A21FA02F0002162
:10066000704721FA02F3D040C2F1200291400843C2
:1006700019467047202A06DBCB17203A41FA02F0D0
:1006800043EAE07306E041FA02F3D040C2F12002EF
:1006900091400843194670472DE9F04791460F46AF
:1006A00080460446002614F8015B2DB100F0B4F832
:1006B0000068405DC007F6D12B2D02D02D2D18D03B
:1006C000641E4A463946204600F0AAF827B1396828
:1006D000A14201D1C7F8008071054FF002040BD58B
:1006E0004042002803DD03F069F80460A007BDE87C
:1006F000F08746F48066E4E70028F8DA03F05EF855
:1007000004606FF00040F2E710B5141E73F10004AE
:1007100008DA401C41F1000192185B411A4301D1F3
:1007200020F0010010BD2DE9F04D92469B4611B11D
:10073000B1FA81F202E0B0FA80F220329046FFF77F
:100740007AFF04460F4640EA0A0041EA0B0153468D
:100750005A46084313D0114653EA010019D0C8F194
:1007600040025046FFF776FF05460E465046594672
:100770004246FFF760FF084305D0012004E0204611
:100780003946BDE8F08D0020054346EAE0762C436B
:1007900037430A986305E40AA0EB08000022FD0A2B
:1007A00044EA47540A3002D500200146E9E7010532
:1007B00010196941DDE9084500196941BDE8F04DAE
:1007C000A2E7C1F30A52C1F3130140F2FF3341F42F
:1007D00080119A4202DA00200146704740F233430A
:1007E0009A42A2F2334202DC5242FFF733BFFFF7D4
:1007F00022BF0000064C074D06E0E06840F0010310
:1008000094E8070098471034AC42F6D3FFF7D2FCC7
:100810005052000870520008004870474C520008BF
:100820002DE9F05F82460078002715468B460AF1D5
:100830000104B946302801D09DB113E014F8010B32
:100840000127782803D0582801D045B10AE00DB11E
:10085000102D07D10027102514F8010B02E0082500
:1008600000E00A250026B0460EE005FB080005FB67
:1008700006F1012701EB10461FFA80F8B6F5803F1C
:1008800000D3B94614F8010B294600F018F80028E7
:10089000EBDABBF1000F05D00FB1641E00E0544647
:1008A000CBF80040B9F1000F06D002F087FF02211B
:1008B0000160C81EBDE8F09F48EA0640FAE73A2802
:1008C00000D2303820F02002412A01D3A2F13700B3
:1008D000884201D34FF0FF307047000070B5064CDE
:1008E0002078042807D105480025057000F008F895
:1008F00000F036F8257070BD0100002000000020D7
:10090000044910B50020087000F0B6F80249012033
:10091000088010BD00000020040000200E4810B523
:10092000016886B041F0040101600068022100F016
:10093000040005900120CDE90010CDE90210074C1C
:100940006946204600F0B4FA00220221204600F059
:10095000A6FB06B010BD000030380240000802407F
:1009600010B5084C01220221204600F098FB3220ED
:1009700000F093FA20460022BDE81040022100F06A
:100980008EBB000000080240FEE70000014800F0B6
:100990004FB90000E4000020014800F049B9000010
:1009A0003C01002001681823CAB2103AB2FBF3F2EE
:1009B000054B6FF30901032A9B5C436500D9091DB0
:1009C0000165084670470000F049000830B504682A
:1009D000256825F480252560046863608368402BC2
:1009E000036803D099600068C26030BD9A600068F7
:1009F000C16030BD10B501222021144803F0CEFFA4
:100A0000134C022220216060104803F0C7FFA06051
:100A1000032220210D4803F0C1FFE06004F1100320
:100A200004222021094803F04DFF04F11803052298
:100A30002021064803F046FF04F120030622BDE80A
:100A400010402021014803F03DBF00009401002028
:100A5000280000207047000010B54FF6FF7003F02B
:100A600029FC0021BDE8104001A2084603F0B2BDF8
:100A70006175746F310000007CB54FF6FF7003F0B4
:100A800019FC00210EA2084603F0A4FD0EA20121CC
:100A9000002003F09FFD0EA20221002003F09AFD2A
:100AA0000D4C642007216080A1806922E2800C2324
:100AB000238101250024CDE9004503F0A5FE7CBD7E
:100AC0006D616E75616C00006175746F31000000BE
:100AD0006175746F32000000500000207CB54FF645
:100AE000FF74204603F0E6FB0125CDE900452C4CC0
:100AF0002389E288A188608803F086FE64206080F4
:100B00000721A1806922E2800C2323810024CDE902
:100B1000004503F079FE002122A2084603F05AFDA9
:100B200021A20121002003F055FD20A20221002076
:100B300003F050FD1EA20321002003F04BFD1DA277
:100B40000421002003F046FD1BA20521002003F034
:100B500041FD1AA20621002003F03CFD18A2072146
:100B6000002003F037FD17A20021822003F032FDA0
:100B700015A20121822003F02DFD14A20221822062
:100B800003F028FD12A20321822003F023FD02B00E
:100B90000421BDE870400FA2822003F01BBD0000BD
:100BA0005000002030000000310000003200000042
:100BB0003300000034000000350000003600000063
:100BC0003700000038000000390000002E0000004F
:100BD0002B0000002D00000072B6FEE72DE9F04169
:100BE00004460068016821F00101016000F05CFA30
:100BF000054600264FF47A770FE000F055FA401BC7
:100C0000B8420AD954F84C0F40F0200044F81809B3
:100C1000032026706070BDE8F08120680068C0077E
:100C2000EBD104F8346F012060700020F3E700007E
:100C30002DE9F041056D0446286894F854200821F8
:100C400001FA02F210424FF004074FF0000617D0ED
:100C500020680268520713D5026822F0040202607D
:100C600094F854008140A960E06C40F00100E06419
:100C700084F8357084F83460A16C09B12046884747
:100C8000286894F85430524A02FA03F1084218D006
:100C900020684169090614D5416921F0800141614C
:100CA00094F8540002FA00F1A960E06C40F00200F0
:100CB000E06484F8357084F83460A16C09B1204692
:100CC00088472868424A94F85430D21C02FA03F14B
:100CD000084218D020680168890714D5016821F0FE
:100CE0000201016094F8540002FA00F1A960E06C7E
:100CF00040F00400E06484F8357084F83460A16C3E
:100D000009B120468847286894F85430102202FA26
:100D100003F108421AD0206803681B0716D5036840
:100D20005F034FF0310327D5A960206801680903EC
:100D300002D484F8353005E00068000302D5412074
:100D400084F83500216C09B120468847286894F85A
:100D50005430202202FA03F1084236D0206803689A
:100D6000DB0632D503685B031CD5A96020680168E7
:100D700009030DD4616C0FE00168C90503D4016853
:100D800021F00801016094F854008240AA60D0E785
:100D90000068000319D5E16B002916D02046BDE894
:100DA000F04108470168C90503D4016821F010012A
:100DB000016094F854008240AA60E06CE064112065
:100DC00084F8350084F83460E5E7BDE8F081000080
:100DD0000100800070B504001AD00220636A84F814
:100DE000350021680A6818480240D4E90105284303
:100DF000D4E903563543284365692843A569284348
:100E0000E5692843256A28431043042B02D005E0F6
:100E1000012070BDD4E90B231A43104308602268F7
:100E20005069616A20F007000843042901D1A16AD2
:100E3000084350612046FFF7B5FD0020E064012023
:100E400084F83500002070BD3F8010F070B5044676
:100E500090F8340001281ED0012084F834000220CC
:100E600084F835002068056825F0010505602046F6
:100E7000FFF7ACFD2068016841F01E0101602068A9
:100E8000416941F0800141612068016841F0010140
:100E90000160002070BD022070BD31B500F004F982
:100EA000044600F001F90099001B8842F9D338BDCF
:100EB0002DE9F84FDFF8A091002209F1040A0AF1A8
:100EC000040B4FF00F080BF1040E01260B6896403F
:100ED0003340B34271D14C68022C01D0122C11D195
:100EE000D40800EB84073D6A5407E40E08FA04FCBA
:100EF00025EA0C05D1F810C00CFA04FC4CEA050CEC
:100F0000C7F820C007685400032591F804C0A54025
:100F10000CF0030CAF430CFA04FC4CEA070CC0F8CD
:100F200000C04F68012F05D0022F03D0112F01D030
:100F3000122F11D18768D1F80CC0AF430CFA04FC12
:100F40004CEA070CC0F808C04768B7430E79C6F3EF
:100F5000001696403E434660C668AE438D68A54085
:100F60003543C5604C68E4006FD53C4C256845F4BA
:100F700080452560246822F0030504F48044009431
:100F8000374C2E19D6F808789407250F08FA05F47F
:100F9000A743344CA04201D100242EE0324CA042A1
:100FA00001D1012429E0314CA04201D1022424E0E6
:100FB0002F4CA04202D103241FE046E02D4CA0425A
:100FC00001D1042419E02C4CA04201D1052414E0E5
:100FD0002A4CA04201D106240FE0294CA04201D1A5
:100FE00007240AE0274CA04201D1082405E0264C42
:100FF000A04201D1092400E00A24AC403C43C6F8D9
:101000000848D9F800404D464E689C43F60300D589
:101010001C432C60DAF8004055464E689C43B603EA
:1010200000D51C432C60DBF800405D464E689C43B5
:10103000F60200D51C432C60DEF8004075464E6871
:101040009C43B60200D51C432C60521C102AFFF4AE
:101050003CAFBDE8F88F0000003C0140443802403E
:10106000003001400000024000040240000802403D
:10107000000C024000100240001402400018024020
:10108000001C024000200240002402400069084089
:1010900000D00120704742694A40426170470AB15E
:1010A000816170470904FBE7014800687047000050
:1010B0001C00002002480168491C016070470000C4
:1010C0001C0000200B4810B5016841F4007101605C
:1010D000016841F480610160016841F48071016040
:1010E000052000F049F80F2000F006F800F015F890
:1010F000002010BD003C024010B5044600F096F9F7
:101100004FF47A71B0FBF1F000F0AAFB0022214607
:10111000501E00F011F8002010BD08B5002000900E
:1011200008BD00F01F02012191404009800000F13C
:10113000E020C0F800117047F0B40E4B1B68C3F3F9
:101140000223C3F10704042C00D904241D1D072D1C
:1011500001D2002300E0DB1E012606FA04F56D1E15
:101160000D409D409E40761E164045EA0601F0BCAB
:1011700001F0A6BE0CED00E0064A00F00701106881
:101180004FF6FF03184040EA01200349084310606E
:10119000704700000CED00E00000FA052DE9F8436F
:1011A0001D48016841F0805101600068012700F08E
:1011B00080500090380490FAA0F0DFF86080B0FA18
:1011C00080F048F82070FFF76FFF04464FF47A75FF
:1011D000134E04E0FFF768FF001BA84213D87068A5
:1011E000C003F7D54FF4003090FAA0F0B0FA80F0C9
:1011F00048F82070FFF758FF044607E0FFF754FF58
:10120000001BA84202D90320BDE8F8837068800360
:10121000F4D50020F8E700004038024000000E42FC
:10122000007000402DE9F05FDFF8F8A104460F469A
:10123000DAF80000DFF8F08100F00F02C8B27A4956
:10124000814641F2883608F10808BA4261D2024666
:101250008AF80020DAF8000000F00F00B8427DD1D3
:101260002078800707D5D8F80020A36822F0F00284
:101270001A43C8F800202078C0072DD060680128E4
:101280001AD002281BD0032819D009688907002921
:1012900064DAD8F80010474621F003010143C8F88A
:1012A0000010FFF701FF0546606801280FD00228F3
:1012B00018D003281CD027E009688903E7E70968EC
:1012C0008901E4E7FFF7F0FE401BB04258D83868C8
:1012D000C0F381000128F5D188E0FFF7E5FE401B4F
:1012E000B0424DD83868C0F381000228F5D17DE0C6
:1012F0003868FFF7D9FE401BB042F9D940E0FFF74C
:10130000D3FE401BB0423BD8386810F00C0FF6D12A
:101310006CE02078800707D5D8F80020A36822F079
:10132000F0021A43C8F800202078C0074CD060684B
:10133000012828D0022829D0032827D00968890746
:10134000002949DAD8F8002022F003020243C8F845
:101350000020FFF7A9FE0546606800E03CE0012898
:101360001DD0022829D0032838D0B346464630681D
:1013700010F00C0F28D0FFF797FE411B5945F6D906
:101380000320BDE8F09F09688903D9E7096889014E
:10139000D6E7FFF789FE411B594502D9F0E7B3466E
:1013A00046463068C0F381000128F2D10CE0FFF717
:1013B0007BFE411B594502D9E2E7B34646463068F9
:1013C000C0F381000228F2D18AF80090DAF8000018
:1013D00000F00F00B84209D00120D2E7444620684F
:1013E000FFF762FE401BB042F9D9C9E720784007F9
:1013F00007D5D8F80010E26821F4E0511143C8F88D
:1014000000102078000708D5D8F80010226921F4D0
:10141000604141EAC201C8F800100F20FFF76CFEDE
:101420000020AEE7003C02400038024010B500F05A
:1014300043F808490968F02292FAA2F201F0F0019B
:10144000B2FA82F2D140044A515CC84003490860B4
:1014500010BD000008380240E049000808000020E4
:1014600010B5FFF7E3FF074909684FF4E05292FA1D
:10147000A2F201F4E051B2FA82F2D140024A515C88
:10148000C84010BD08380240E049000810B5FFF719
:10149000CDFF074909684FF4604292FAA2F201F4C5
:1014A0006041B2FA82F2D140024A515CC84010BD9C
:1014B00008380240E049000830B51948006810F0CB
:1014C0000C01184812D0184C04290ED008290DD14F
:1014D000134A121F1168136801F03F015D0247F6BD
:1014E000C07304D5B4FBF1F003E0204630BDB0FB7F
:1014F000F1F01168194093FAA3F3B3FA83F3D940DA
:10150000484311684FF4403292FAA2F201F440319C
:10151000B2FA82F2D140491C4900B0FBF1F030BD73
:10152000083802400024F40040787D012DE9F84F8E
:1015300004460078DFF8FCA2BF4DC0074FF000065C
:1015400048D0DAF800105046C1F38101012908D0D3
:101550000068C0F3810002280AD1281D00684002FB
:1015600006D52868800335D56068002873D031E03F
:10157000DFF8C49209F1020989F80060FFF794FDD1
:10158000074641F2883804E0FFF78EFDC11B414554
:101590007AD828688003F7D4207989F80000606839
:1015A00060B1FFF781FD074604E0FFF77DFDC11B39
:1015B0004145EDD828688003F7D50BE0FFF774FDAF
:1015C000074604E0FFF770FDC11B4145E0D82868DD
:1015D0008003F7D42078DFF86492800744D5DAF8E6
:1015E0000010504611F00C0F4FF0F80809D00068B9
:1015F000C0F3810002280BD18E48001F0068400212
:1016000006D42868800714D5E068012823D110E0AB
:10161000E068D0B10120C9F80000FFF745FD07469A
:1016200004E0FFF741FDC01B6428B1D8286880079B
:10163000F7D5286898FAA8F22169B2FA82F220F068
:10164000F8009140084328600EE0C9F80060FFF7F9
:101650002BFD074605E0EAE0FFF726FDC01B6428E6
:1016600012D828688007F7D42078000725D5DFF83E
:10167000C4817348616908F16C0881B1012101607E
:10168000FFF712FD074605E07EE0FFF70DFDC01BEA
:10169000642879D8D8F800008007F6D50DE00660F8
:1016A000FFF702FD074604E0FFF7FEFCC01B6428BD
:1016B0006AD8D8F800008007F6D42078400753D5C0
:1016C0005C483830016841F0805101600068DFF803
:1016D000748100F080500090D8F8001041F48071BF
:1016E000C8F80010FFF7E0FC074604E0FFF7DCFC59
:1016F000C01B642848D8D8F80000C005F6D5DFF82C
:1017000034B10BF1680B8BF80060FFF7CDFC074696
:1017100041F2883804E0FFF7C7FCC11B41457ED881
:10172000DBF800008007F6D4207A8BF80000A06870
:1017300068B1FFF7B9FC074604E0FFF7B5FCC11B31
:1017400041456CD8DBF800008007F6D50CE0FFF7C8
:10175000ABFC074604E0FFF7A7FCC11B41455ED880
:10176000DBF800008007F6D4A069E8B3DAF80010CF
:10177000C1F3810102295AD0022806D0C9F860605D
:10178000FFF792FC04464DE049E04F46C9F860601F
:10179000FFF78AFC064604E0FFF786FC801B6428FE
:1017A0003DD828688001F7D4D4E90701084347F6FB
:1017B000C07191FAA1F1626AB1FA81F18A40A16A1D
:1017C0004FF0FF3303EB51014FF4403393FAA3F38F
:1017D000B3FA83F399400A4310434FF0706292FAD0
:1017E000A2F2B2FA82F200E01FE0E16A91400843FF
:1017F0001049091F086001203866FFF755FC0446B0
:1018000004E0FFF751FC001B642808D82868800119
:10181000F7D50AE0FFF748FC001B642802D9032033
:10182000BDE8F88F28688001F4D40020F8E7012093
:10183000F6E7000008380240003802400000474246
:10184000800E4742007000404FF0E02104280869F4
:1018500003D020F004000861704740F00400FAE76C
:1018600010B5401EB0F1807F01D3012010BD4FF0B4
:10187000E02460610F21601701F022FB0020A061CD
:1018800007202061002010BD7047704730B590F8E8
:101890003820012A20D0012380F83830022280F835
:1018A00039200268546824F0700454600268546857
:1018B0000D682C4354600268946824F0800494609E
:1018C0000268946849680C43946080F839300021BC
:1018D00080F83810084630BD022030BD10B5040035
:1018E00003D094F8390010B107E0012010BD0020AA
:1018F00084F83800204600F00DF8022084F8390002
:10190000211D206801F0E8FB012084F83900002047
:1019100010BD000008B500681C4A1D49904211D155
:10192000086840F0080008600868002200F008001D
:10193000009011463220FFF7FFFBBDE8084032203F
:10194000FFF7EFBB134A904209D11148001D01680F
:1019500041F480210160006800F4802009E00E4A13
:10196000904208D1086840F080000860086800F0E4
:101970008000009008BD094A9042FBD1086840F4FD
:1019800080700860086800F48070F2E7000C004086
:101990004038024000480140001C00400020004048
:1019A0000168CA6842F00102CA600068016841F03B
:1019B000010101600020704770B5044690F83800BE
:1019C000012817D0012584F83850022084F8390006
:1019D0002068826822F0770222F47F4282600868E1
:1019E000502836D00DDC202858D005DC80B31028D4
:1019F00040D150E0022070BD302852D0402839D16B
:101A00003EE060282DD070280BD0B0F5805F03D069
:101A1000B0F5005F2ED110E02068816821F0070149
:101A200009E0CB68D1E90121206801F0C0FB206802
:101A3000816841F0770181601CE0CB68D1E9012128
:101A4000206801F0B4FB2068816841F48041F2E72E
:101A50001EE0CA684968206801F072FC50212068C5
:101A600006E0CA684968206801F07BFC60212068B4
:101A700001F0A7FB84F83950002084F8380070BDCD
:101A8000CA684968206801F05BFC40212068EFE7E4
:101A900000212068ECE710212068E9E72021206878
:101AA000E6E730212068E3E72DE9F0410D46040028
:101AB00003D094F8390018B108E00120BDE8F081A6
:101AC000002084F83800204600F03AF8022084F81C
:101AD00039002068816821F007018160211D20689C
:101AE00001F0FAFA206881688269066A2B68AF699A
:101AF0000B4340F203318A4342EA0722A968EF69A7
:101B000011434FF6FC429143EA6841EA07210A4338
:101B100029692F6A090141EA0737696817436D6926
:101B200026F0AA0242EA0512114383602068876109
:101B300020680162012084F839000020BEE700001F
:101B400070B586B0044614216846FEF764FB45482C
:101B500021680024444A02250126814219D14248C5
:101B60001430016841F001010160006800F00100DB
:101B70000590106840F0100010601068694600F091
:101B8000100005904FF420600090CDE901543748D3
:101B900045E0354B36481033B1F1804F18D0354E03
:101BA000B14242D1196841F002011960196801F08F
:101BB00002010591116841F001011160116801F005
:101BC00001010591C0210091CDE90154694646E02B
:101BD000196841F001011960196801F001010591CE
:101BE000116841F001011160116801F001010591D6
:101BF000116841F002011160116801F002010591C4
:101C000020210091CDE90154CDE903466946FFF753
:101C10004FF908200090CDE9015417486946CDE9F5
:101C20000346FFF745F906B070BD14488142FAD16A
:101C3000186840F004001860186800F0040005906F
:101C4000106840F0080010601068694600F0080055
:101C500005904FF440500090CDE901540848CDE97B
:101C60000345DEE70000014030380240001002402A
:101C70000000024000040040000402400008004050
:101C8000000C024010B50446006889B1042904D054
:101C90000122002101F080FA20680122042101F0D4
:101CA0007BFA2068016841F001010160002010BD4D
:101CB00001220021F3E7704770B50446006801690E
:101CC0004FF00005C943890715D4C168C943890786
:101CD00011D4E91E01610120207620688069800707
:101CE000204602D0FFF7E7FF04E000F03FF920466E
:101CF00000F0F0F9257620680169C943490717D437
:101D0000C168C943490713D46FF00401016102207F
:101D100020762068806910F4407F204602D0FFF7CB
:101D2000CAFF04E000F022F9204600F0D3F925763E
:101D300020680169C943090716D4C168C943090766
:101D400012D46FF008010161042020762068C06978
:101D50008007204602D0FFF7AEFF04E000F006F94E
:101D6000204600F0B7F9257620680169C943C90605
:101D700017D4C168C943C90613D46FF010010161BB
:101D8000082020762068C06910F4407F204602D0E9
:101D9000FFF791FF04E000F0E9F8204600F09AF91F
:101DA000257620680169C943C90708D1C168C943BC
:101DB000C90704D1891E0161204600F0A9F92068F5
:101DC0000169C943090609D4C168C943090605D494
:101DD0006FF0800101612046FFF756FD2068016920
:101DE000C943490609D4C168C943490605D46FF0FF
:101DF00040010161204600F0BDF920680169C94336
:101E000089060BD4C168C943890607D46FF0200145
:101E100001612046BDE87040FFF737BD70BD00008E
:101E200070B586B0044614216846FEF7F4F94348BD
:101E300021680024424A0225032381420FD1106801
:101E400040F0040010601068694600F0040005903E
:101E50004FF4A0700090CDE901543A4810E03A48A0
:101E6000814213D1106840F010001060106869467C
:101E700000F01000059020200090CDE90154334877
:101E8000CDE90343FFF714F806B070BD304E31487A
:101E9000B1420DD1116841F020011160116801F0CB
:101EA0002001059180210091CDE901546946E7E7C1
:101EB000294B0926994221D1106840F0800010601A
:101EC000106800F080000590106840F0020010607B
:101ED0001068694600F00200059040200090CDE9AE
:101EE0000154CDE903461D48FEF7E2FF4FF40040E0
:101EF0000090CDE90154694619481CE0194B9942FC
:101F000009D1116841F020011160116801F0200130
:101F1000059199150BE0144B9942B5D1116841F028
:101F200020011160116801F02001059159150091FF
:101F3000CDE901546946CDE90346A3E70004014019
:101F400030380240000802400040014000100240CA
:101F5000004801400014024000180040001C0240EC
:101F600000040240001C004000200040704770B593
:101F7000044690F838000D4601280DD0012684F85B
:101F80003860022084F8390042B1042A18D0082AA7
:101F90002AD00C2A4DD139E0022070BD206801F012
:101FA00019F92068816941F008018161206881691F
:101FB00021F004018161206881692A69114311E0DF
:101FC000206801F033F92068816941F40061816182
:101FD0002068816921F480618161206881692A69B2
:101FE00041EA0221816124E0206801F051F9206872
:101FF000C16941F00801C1612068C16921F0040193
:10200000C1612068C1692A69114311E0206801F0AB
:102010006FF92068C16941F40061C1612068C1693C
:1020200021F48061C1612068C1692A6941EA022105
:10203000C16184F83960002084F8380070BD10B5A3
:10204000040003D094F8390010B107E0012010BD5E
:10205000002084F83800204600F00CF8022084F8B4
:102060003900211D206801F037F8012084F839007B
:10207000002010BD08B50068124A1349904207D1EC
:10208000086840F002000860086800F0020009E0FB
:102090000E4A904208D1086840F480300860086811
:1020A00000F48030009008BD09498842FBD1064801
:1020B000001F016841F040010160006800F040002D
:1020C000F0E70000000401404438024000400140B5
:1020D000001800407047000010B504460068012257
:1020E00001F05AF808482168814202D0074881422D
:1020F00003D1486C40F4004048642068016841F016
:1021000001010160002010BD0000014000040140F9
:10211000F8B512490068096888421ED1104908883C
:10212000401C80B208800A2817D3002008800420B1
:1021300000F0FCFE0446032000F0F8FE06460220F4
:1021400000F0F4FE0546012000F0F0FE01463346A3
:102150002A4604A0009401F021FBF8BD840300206E
:102160005A00002025642C2025642C2025642C2076
:1021700025640A00704710B504460068416921F0E3
:10218000800141612068416921F040014161206B7B
:1021900008B1FEF723FD606B08B1FEF71FFD0120BB
:1021A00084F83900002010BD704738B50168044636
:1021B0000868CA68C0F3000002F4807238B132B116
:1021C000086848680090E06B40F00100E063086830
:1021D0004A69C0F3400002F0010238B132B1086828
:1021E00048680090E06B40F00400E06308684A69CA
:1021F000C0F3800002F0010238B132B108684868CB
:102200000090E06B40F00200E06308684A69C0F3A8
:10221000C00002F0010238B132B10868486800908D
:10222000E06B40F00800E0630868C968C0F3401044
:1022300001F0200118B111B1204601F0EEF820683C
:102240000168C068C1F3C01100F0800019B110B17D
:10225000204601F0EFF921680868CA68C0F38010D1
:1022600002F04002012568B162B1CA68204622F03E
:102270004002CA6094F8391032290CD080F83950E5
:1022800000F00AFAE06B002804D084F839502046A8
:10229000FFF78AFF38BD222180F83910F0E708B532
:1022A00001680A6849680091FFF765FF00F01AFEAF
:1022B000BDE8084000F086BE70B5040004D094F874
:1022C0003900002510B106E0012070BD84F83850B7
:1022D000204600F021F8022084F839002068C16807
:1022E00021F40051C160204601F0EAF8206801693C
:1022F00021F4904101612068416921F02A01416186
:102300002068C16841F40051C160E563012084F890
:102310003900002070BD00002DE9F04186B006466E
:1023200014216846FDF777FF3B4F306800243B4996
:10233000022203230725B8421DD13848143006680D
:1023400046F010060660006800F01000059008686E
:1023500040F0010008600868694600F0010005903F
:1023600058028DE81500CDE903352D48FEF7A0FD94
:1023700006B0BDE8F0812B4FB842F9D127481030A4
:10238000076847F480270760006800F48020059004
:10239000086840F0020008600868694600F0020022
:1023A00005904FF440608DE81500CDE903351E48D7
:1023B000FEF77EFD1E4D1D484FF000672860C5E901
:1023C00001744FF48068C5E903486C61AC61EC614D
:1023D0002C6228466C62FEF7FDFC75631348AE6301
:1023E00058353030E5E802074020A5E811011048D3
:1023F00045F814495830AC61EC612C626C62FEF710
:10240000E9FC3563002211462720AE63FEF794FEF7
:102410002720FEF786FEABE700100140303802406F
:1024200000000240004800400004024028600240D2
:10243000E400002037B5044690F83900134601281F
:1024400001D012282FD1019A4AB343B394F838002F
:10245000012828D0012084F83800A262A385002535
:10246000E56394F8390012281BD0222084F8390043
:10247000616B0E48C863616B0D480864616B0D4861
:1024800088642168606B091DFEF7E0FC20684169E3
:1024900041F04001416184F8385000203EBD0120E8
:1024A0003EBD3220E2E702203EBD0000A533000819
:1024B000D93300088733000890F83930012B01D058
:1024C000122B2BD131B32AB390F83830012B25D001
:1024D000012380F8383081628285C2850022C26380
:1024E00090F83910122917D0222180F8391001688C
:1024F000CB6843F48073CB6001684B6943F0010300
:102500004B6180F838200068C16841F02001C1604B
:1025100000207047012070473221E6E70220704713
:10252000054910B5884205D100F0DCFCBDE810403B
:1025300000F048BD10BD0000A400002070472DE948
:10254000F047044690F8390099460D46012801D01D
:10255000222856D125B31AB394F83800012850D058
:10256000012684F838600027E76394F839002228B0
:1025700019D0122084F83900A284E2844FF48058E4
:10258000E08C4B46401EE084A0684FF000024045BE
:102590004FF08001204613D101F07FF808BB04E022
:1025A0000120BDE8F0873220E4E728882168C0F3E5
:1025B00008004860206908B16D1C08E0AD1C06E009
:1025C00001F06BF868B9216815F8010B4860E08CE0
:1025D0000028D5D14B4600224021204601F05DF86D
:1025E00008B10320DDE794F83900322805D084F8DB
:1025F000396084F838700020D3E7222084F839004D
:10260000F7E70220CDE70000F7B5044690F839005F
:10261000012801D0222837D1019981B37AB394F8E7
:102620003800012830D0012084F838002162A284CB
:10263000E2840025E56394F83900222822D0122094
:1026400084F83900236B1148D863236B1048186451
:10265000236B1048986420681346266B021D304691
:10266000FEF7F4FB21686FF04000086020684169C4
:1026700041F08001416184F838500020FEBDFFE741
:102680000120FBE73220DBE70220F7E7E333000815
:1026900011340008873300080349884202D10349F6
:1026A0000120087070470000A400002028000020CE
:1026B0007047FEE72DE9FC472F4D2E4FDFF8BC8019
:1026C0002B8997F800C0EA88A9886888B8F8004084
:1026D00000264FF001094FF6FF7ABCF1010F08D038
:1026E000BCF1020F19D0BCF1030F14D1032C28D375
:1026F00010E0012C0ED9641EA8F80040CDE900A915
:102700004C4602F081F8A888103881B2A980288947
:10271000103824E03E70BDE8FC87194D2C70FEF7A0
:102720001FF92878012806D0022807D00328F1D104
:1027300000F036F8EEE700F039F8EBE700F022F8A9
:10274000E8E7641CA8F80040CDE900A94C4602F077
:102750005BF8A888103081B2A9802889103083B234
:102760002B81CDE90064EA88688802F04DF8FEF715
:10277000F7F8CFE7010000205000002004000020FF
:1027800000000020044910B502200870FEF764F92B
:1027900002490120088010BD000000200400002034
:1027A00001490320087070470000002010B504485C
:1027B00001240470FEF792F90248048010BD000065
:1027C000000000200400002030B5154887B0002527
:1027D000016841F001010160016801F0010105910A
:1027E000016841F0800101600068032400F080006E
:1027F00005900420CDE900050220CDE902046946D8
:102800000848FEF755FB2C20CDE900050120CDE955
:10281000020469460448FEF74BFB07B030BD0000D8
:102820003038024000000240001C02402DE9F04117
:1028300001262E4C2E4F2F4D01281CD0207898B108
:1028400004213846FEF722FCB8B104212846FEF7E1
:102850001DFC90B108212846FEF718FC68B1202124
:102860002846FEF713FC40B104213846FEF70EFC63
:10287000012825D037E02670E2E70A2001F016FC97
:102880000020207004213846FEF700FC78B10421B6
:102890002846FEF7FBFB68B108212846FEF7F6FB49
:1028A00050B120212846FEF7F1FB38B11BE0012092
:1028B000BDE8F0810220FBE70320F9E70420F7E7F9
:1028C00004212846FEF7E2FB01280CD10821284606
:1028D000FEF7DCFB012806D120212846FEF7D6FBB7
:1028E000012800D126700020E2E70000240000202B
:1028F00000000240001C02400E4810B5016886B07E
:1029000041F00201016000680B4C00F002000590EC
:10291000022000900120019002900320039069465C
:102920002046FEF7C5FA012202212046FEF7B7FB3A
:1029300006B010BD30380240000402402DE9FC47CB
:102940002B4D2A4FDFF8AC802B8997F800C0EA881E
:10295000A9886888B8F8004000264FF001094FF6B2
:10296000FF7ABCF1010F0FD0BCF1020F20D0BCF1F7
:10297000030F21D0BCF1040F18D11F48067000F0DE
:102980008FFAFDF7EDFF10E0012C0ED9641EA8F8B8
:102990000040CDE900A94C4601F036FFA888103868
:1029A00081B2A9802889103816E03E70BDE8FC8706
:1029B000BDE8FC47FDF7D4BF082CF6D2641CA8F88C
:1029C0000040CDE900A94C4601F01EFFA888103058
:1029D00081B2A9802889103083B22B81CDE90064AF
:1029E000EA88688801F010FFCBE7000001000020B2
:1029F0005000002004000020000000200D4808B511
:102A0000016841F4001101600068002200F4001028
:102A1000009011460C20FEF78FFB0C20FEF781FB87
:102A2000002211460E20FEF787FBBDE808400E206D
:102A3000FEF777BB303802402DE9F04186B0142113
:102A40006846FDF7E8FB2F480024016841F080014B
:102A50000160016801F080010591016841F0020107
:102A60000160016801F002010591016841F0010176
:102A70000160016801F001010591016841F08001E8
:102A80000160016801F080010591016841F01001C9
:102A90000160016801F010010591016841F0080131
:102AA0000160016801F008010591016841F0010130
:102AB00001600068144F00F001004FF4604505907C
:102AC000002229463846FEF7EAFADFF840806E1108
:102AD000002231464046FEF7E2FA00950125CDE995
:102AE0000154694638460394FEF7E2F90096CDE9B1
:102AF0000154694640460394FEF7DAF906B0BDE892
:102B0000F08100003038024000100240000C02400A
:102B100010B588B01C216846FDF77DFB16481549A5
:102B20000024016040F20771C0E9011440F2E7316E
:102B3000C0E90314FFF783FA08B1FEF74DF86020EF
:102B4000CDE900040294002269460B480494FFF783
:102B50000EFA08B1FEF740F8042269460648FFF76E
:102B600006FA08B1FEF738F80348FFF759F908B03C
:102B700010BD0000001800407404002010B588B09B
:102B80001C216846FDF747FB1548144900240160E5
:102B900040F20771C0E9011440F2E731C0E90314C3
:102BA000FEF79CFE08B1FEF717F80D48FFF747FA4D
:102BB00008B1FEF711F86020CDE90004029400226C
:102BC000694607480494FFF7D2F908B1FEF704F804
:102BD0000348FFF725F908B010BD0000001C0040B5
:102BE000B004002010B588B01C216846FDF713FB27
:102BF000154814490024016040F20771C0E901142E
:102C000040F2E731C0E90314FEF768FE08B1FDF7B2
:102C1000E3FF0D48FFF713FA08B1FDF7DDFF602071
:102C2000CDE9000402940022694607480494FFF7A6
:102C30009EF908B1FDF7D0FF0348FFF7F1F808B09F
:102C400010BD000000200040EC04002010B58CB046
:102C500024216846FDF7DFFA002416480994144938
:102C60000A9401600121C0E901144FF6FF72C0E926
:102C700003244461CDE9001405200291CDE903400D
:102C8000CDE90541CDE9074069460A48FEF70CFF4A
:102C900008B1FDF7A1FF099409A906480A94FEF7B7
:102CA000F5FD002801D0FDF797FF0CB010BD000026
:102CB000000001409402002010B58CB02421684629
:102CC000FDF7A9FA0024144809944FF080410A94B2
:102CD00001600121C0E901148A1EC0E90324CDE985
:102CE000001405200291CDE90340CDE90541CDE96D
:102CF000074069460848FEF7D7FE08B1FDF76CFFAC
:102D0000099409A904480A94FEF7C0FD002801D0DF
:102D1000FDF762FF0CB010BDD002002010B58CB0E2
:102D200024216846FDF777FA0024154809941349D1
:102D30000A9401600121C0E901144FF6FF72C0E955
:102D40000324CDE9001405200291CDE90340CDE92B
:102D50000541CDE9074069460948FEF7A5FE08B1DF
:102D6000FDF73AFF099409A905480A94FEF78EFD7C
:102D7000002801D0FDF730FF0CB010BD000400406A
:102D80000C03002010B58CB024216846FDF743FAEF
:102D900000241548099413490A9401600121C0E9EF
:102DA00001144FF6FF72C0E90324CDE90014052099
:102DB0000291CDE90340CDE90541CDE907406946DF
:102DC0000948FEF771FE08B1FDF706FF099409A94D
:102DD00005480A94FEF75AFD002801D0FDF7FCFED5
:102DE0000CB010BD000800404803002010B586B0AC
:102DF0000024164800940194029403940494124908
:102E000005940160B321C0E9011440F2E731C0E943
:102E10000314FEF763FD08B1FDF7DEFE4FF48050AA
:102E2000009069460948FEF7C7FD08B1FDF7D4FEDA
:102E3000049404A905480594FEF728FD002801D054
:102E4000FDF7CAFE06B010BD000C00408403002050
:102E50000848074901604FF4E13141600021816079
:102E60000C22C160C0E904128161C161FFF724BA7C
:102E700000100140640000200848074901604FF439
:102E8000E1314160002181600C22C160C0E904127F
:102E90008161C161FFF710BA00480040A400002022
:102EA000044910B500200870FDF7E6FD0249012035
:102EB000088010BD0000002004000020FEE77047DD
:102EC0000907090E002806DA00F00F0000F1E020E3
:102ED00080F8141D704700F1E02080F8001470475E
:102EE0007047000070B50E48406B00684068D0F134
:102EF000800414D00B4D2878012810D180210A4875
:102F0000FDF789F90849224680390748FDF76AF933
:102F10006C7000F061F8BDE87040FDF76BBD70BDEE
:102F2000A4000020280000201402002000210F2807
:102F300026D2DFE800F025080A0D0F111315171926
:102F40001B1D1F212600114A1CE04FF0804219E092
:102F50000F4A12E00F4A10E00F4A0EE00F4A11E04C
:102F60000F4A0AE00F4A08E00F4A0BE00F4A04E05C
:102F70000F4A02E00F4A00E00F4A1068116000B2E9
:102F800070470E4A506A516200B27047000001401B
:102F90002404004024080040240C0040001000409D
:102FA0002414004024040140004001402444014016
:102FB0002448014024180040241C00400020004008
:102FC0007047000080220249024800F0BFBB0000A9
:102FD00094010020A40000200248034942780348DD
:102FE00000F0C4BB2800002014020020A400002030
:102FF00070B51E4C92B00025266846F080562660BB
:10300000246804F080541194194C266846F4404614
:10301000266024680DF1240C04F44044119401242A
:1030200000940194022406948CE80D006605CDE915
:1030300007616846FEF77AFA00B1FEE7FEF7AEF8E0
:1030400000B1FEE70CA90F2081E831004FF4A05039
:103050000F904FF48050109005210CA8FEF7E2F875
:10306000002800D0FEE712B070BD000040380240DA
:1030700000700040FEF71EB81048016841F470016E
:1030800001600F48016841F0010101600C4A002114
:103090000832116002680B4B1A400260031D0A4A95
:1030A0001A60026822F48022026005480C30016038
:1030B00002495806803908607047000088ED00E03A
:1030C00000380240FFFFF6FE103000240148FEF7F2
:1030D000F3BD000084030020F0B50268234D244EA8
:1030E000244FDFF894C0254B4FF0804EA84209D002
:1030F000704507D0B04205D0B84203D0604501D03A
:10310000984203D122F070044A682243A8421BD09F
:10311000704519D0B04217D0B84215D0604513D0D1
:10312000984211D0164CA0420ED0164CA0420BD0A3
:10313000154CA04208D0154CA04205D0144CA0421A
:1031400002D0144CA04203D122F44074CA68224336
:1031500002608A68C2620A688262A84201D098420C
:1031600001D10969016301214161F0BD0000014005
:103170000004004000080040000C00400004014032
:103180000040014000440140004801400018004058
:10319000001C00400020004010B50123046A8B4051
:1031A0009C430462036A8A401343036210BD10B556
:1031B000846842EA032224F47F440A432243826063
:1031C00010BD826822F070020A4342F0070181605C
:1031D0007047000030B5026A22F001020262056AFF
:1031E000426883690C6823F073031C438B6825F0E5
:1031F00002052B430B4DA84202D00B4DA8420BD128
:1032000023F00805CB6822F440722B434D6923F06C
:10321000040315438A692A43426084614968416313
:10322000036230BD000001400004014030B5026A75
:1032300022F010020262036A426884690D6824F475
:10324000E64444EA05248D6823F0200343EA05138D
:103250000D4DA84202D00D4DA8420ED1CD6823F0ED
:10326000800343EA05134D6922F4406242EA850275
:103270008D6923F0400342EA850242608461496817
:103280008163036230BD0000000001400004014082
:1032900030B5026A22F480720262036A4268C4692D
:1032A00023F4007324F073050C682C438D6843EA03
:1032B00005230D4DA84202D00C4DA8420ED1CD6879
:1032C00023F4006343EA05234D6922F4405242EAA5
:1032D00005128D6923F4806342EA05124260C461DD
:1032E0004968C163036230BD000001400004014031
:1032F00030B5026A22F480520262036A4268C469ED
:103300000D6824F4E64444EA05248D6823F4005350
:1033100043EA0533084DA84202D0084DA84204D123
:103320004D6922F4804242EA85124260C4614968D4
:103330000164036230BD0000000001400004014050
:1033400010B5046A036A23F001030362836923F062
:10335000F00343EA021324F00A020A438361026283
:1033600010BD10B5036A23F0100303628469036A79
:1033700024F4704444EA023223F0A00343EA01112A
:103380008261016210BD10B5806B0021C185C184CE
:10339000012180F83910C16B41F01001C163FEF7C3
:1033A00003FF10BD10B50146806B09680968C905A7
:1033B0000DD40021C18501684A6922F040024A61AA
:1033C00090F83910322905D0012180F83910FFF723
:1033D000A7F810BD1221F8E710B5806BFFF7AEF823
:1033E00010BD10B50146806B09680968C9050CD489
:1033F0000021C18401684A6922F080024A610068A4
:10340000C16841F04001C16010BDFFF745F910BD32
:1034100010B5806BFFF74CF910BD10B590F839105E
:10342000222903D0322901D0022010BD8168B1F5D4
:10343000805F11D00169002901681FD0496801F03F
:103440007F03816A4A1C82620B70C18D491E090488
:10345000090CC18518D02FE00269816A002A026830
:10346000526805D0D2B20A80816A491C8162ECE7B9
:10347000C2F308020A80816A891CF7E74A68816AF8
:103480004B1C83620A70E0E70168CA6822F02002E0
:10349000CA6090F83910322910D00168CA6822F445
:1034A0008072CA6001684A6922F001024A61012102
:1034B00080F83910FFF734F8002010BD1221F7E72B
:1034C0002DE9F041044600680169E26821F44051A9
:1034D0000A4302612068C16849F20C629143236982
:1034E000A268E5691A4363692B431A430A43C26021
:1034F0002068416921F44072A16911434161E0698A
:1035000064263225B0F5004F484A494920681DD04D
:10351000884201D0904269D1FDF7B8FF00EBC001AD
:1035200001EB00106168B0468900B0FBF1F1B1FB1E
:10353000F8F6FDF7ABFF00EBC00101EB001061688E
:103540008900B0FBF1F7FDF7A1FF68E0884201D0E8
:10355000904219D1FDF79AFF00EBC00101EB00107A
:103560006168B0464900B0FBF1F1B1FBF8F6FDF738
:103570008DFF00EBC00101EB001061684900B0FB5A
:10358000F1F7FDF783FF18E0FDF76AFF00EBC001DC
:1035900001EB00106168B0464900B0FBF1F1B1FBEE
:1035A000F8F6FDF75DFF00EBC00101EB001061686C
:1035B0004900B0FBF1F7FDF753FF00EBC00101EB51
:1035C000001061684900B0FBF1F1B1FBF8F06FF059
:1035D0001801484307EB800005EB0011B1FBF8F040
:1035E000216866F31F108860BDE8F081FDF738FFA1
:1035F00000EBC00101EB00106168B0468900B0FB30
:10360000F1F1B1FBF8F6FDF72BFF00EBC00101EB88
:10361000001061688900B0FBF1F7FDF721FF00EBB6
:10362000C00101EB001061688900CCE70014014083
:103630000010014090F83910122903D0322901D02E
:10364000022070478168B1F5805F016A0BD04A1C87
:103650000262026809785160C18C491E0904090C94
:10366000C1840ED017E009880268C1F308015160D7
:1036700001690029016A02D0491C0162ECE7891C3A
:10368000FBE70168CA6822F08002CA600068C1686E
:1036900041F04001C160002070472DE9F0471D4610
:1036A00090460F460446FDF7FFFC06465FEA080019
:1036B0004FF000094FF0010808D030E0681C05D039
:1036C00095B1FDF7F1FC801BA8420DD82068006879
:1036D00037EA0000F2D127E0681C20D025B1FDF7C1
:1036E000E3FC801BA8421AD92068C16821F0800140
:1036F000C1602068C16821F02001C1602068C168F4
:1037000021F48071C1602068416921F001014161AB
:1037100084F8398084F838900320BDE8F087206869
:10372000006837EA0000D7D00020F6E7064810B559
:1037300000680068C00602D50348FEF7B0FDBDE88A
:1037400010400148FEF731BDA400002070B50546C9
:10375000012492B2FEF76EFE08B1002404E029684D
:10376000C86840F01000C860204670BD70B50346C0
:1037700008480124057855B14AB10025057092B278
:103780001846FEF741FF00B10024204670BD00201E
:1037900070BD000028000020FEE700000FB4054BBC
:1037A00010B503A9044A029800F0DEF810BC5DF8D9
:1037B00014FB0000FD4000085C000020004870473A
:1037C0006000002002E008C8121F08C1002AFAD1D8
:1037D00070477047002001E001C1121F002AFBD191
:1037E000704700002DE9FF5F82B00021DDE9043061
:1037F000020DDDF840B0034318D044F61050A2F299
:10380000FF3242431514119801281FD0A5EB0B007D
:10381000401C5FEA000A4FF000064E4FDFF8389177
:10382000B046504615D5CAF1000413E011980124A2
:103830004AA3012801D16FEA0B010298119AC0E94D
:103840000031C0E9024206B0BDE8F09FCBF10000B4
:10385000DFE704460021404A491842EB0450CDE915
:10386000001012E0E00707D032463B46404649468A
:10387000FCF790FD8046894632463B461046194685
:10388000FCF788FD06460F466410002CEAD1DDE9FE
:103890000401DDE90023BAF1000F06DAFCF77AFD36
:1038A00042464B46FCF776FD05E0FCF7E5FD424657
:1038B0004B46FCF7E1FD04460E460022284BFCF780
:1038C0005BFE03D84FF0FF30014607E00022254B96
:1038D00020463146FCF7B7FCFCF773FF102409E0E3
:1038E000002C0ADB0A220023FCF774FE039B303213
:1038F0001A55641E50EA0102F2D1641C039AC4F105
:1039000011031444119A012A03D0012208430DD156
:103910000AE0084304D000204FF0110B119072E729
:10392000A3EB0B056D1E0DE05B4504DD4FF00002BF
:1039300005F1010504E003DA4FF00002A5F10105ED
:10394000002AECD002981199C0E90231C0E9004583
:1039500079E70000000014400000F03F3000000054
:103960000000F0430000E03F2DE9FF4F95B09B467B
:103970008946064600250FE2252877D100242746F0
:10398000F84A0121059400E0044316F8013F203B6A
:1039900001FA03F01042F7D130782A2811D06FF0E5
:1039A0002F033078A0F13002092A16D8059A44F086
:1039B000020402EB820203EB42021044761C0590E3
:1039C000EFE759F8042B0592002A03DA504244F439
:1039D0000054059044F00204761C30782E2816D14D
:1039E00016F8010F44F004042A280DD06FF02F02BE
:1039F0003078A0F13003092B09D807EB870302EBDD
:103A00004303C718761CF3E759F8047B761C30781B
:103A10006C280FD006DC4C2817D068280DD06A28F7
:103A200014D104E0742810D07A280FD10DE044F4AA
:103A300000140AE044F4801401E044F44014727865
:103A4000824202D104F58014761C761C30786628F8
:103A50000BD013DC582877D009DC002875D0452816
:103A6000F6D04628F4D047281AD19DE118E0632803
:103A700035D0642879D0652812D195E1702873D0AB
:103A800008DC6728F1D069286FD06E280DD06F2828
:103A900006D1B5E073282CD0752875D0782874D05D
:103AA0005A46179990476D1C75E1C4F302500228DD
:103AB00009D003280DD0D9F8001004280DD00D60CE
:103AC00009F1040967E1D9F80010EA17C1E90052C9
:103AD000F6E7D9F800100D80F2E70D70F0E719F85D
:103AE000041B8DF8001000208DF80100EA4601202B
:103AF00003E059F804AB4FF0FF3061074FF00001CD
:103B000002D40DE008F101018846B9420FDA804580
:103B1000F8DB1AF808100029F4D108E008F10101D7
:103B200088468142FADB1AF808100029F6D1059878
:103B30005B46A0EB080721463846179A00F094FA36
:103B4000284400EB080507E04DE029E10DE01AF8F4
:103B5000010B5A4617999047B8F10108F7D25B4616
:103B600021463846179A13E142E00A220092C4F334
:103B700002524FF0000A022A08D059F804CB032A57
:103B80004FEAEC710AD00DE029E02AE009F10701C3
:103B900021F00702F2E802C1914609E00FFA8CFC1D
:103BA0004FEAEC71042A03D14FFA8CFC4FEAEC7116
:103BB000002907DA0A460021DCF1000C61EB020162
:103BC0002D2202E0220504D52B228DF804200122AB
:103BD00003E0E20701D02022F7E7904659E00A21EE
:103BE00002E010220DE010214FF0000A00910BE0DE
:103BF00010224FF0000A44F004040827009203E06A
:103C000008224FF0000A0092C4F30252022A05D0A3
:103C100059F804CB0021032A08D009E009F1070173
:103C200021F00702F2E802C1914605E01FFA8CFC80
:103C3000042A01D10CF0FF0C4FF00008220728D510
:103C4000702806D0009B83F0100353EA0A0305D0C6
:103C50000EE040228DF80420012208E05CEA010217
:103C600006D030228DF804208DF8050002229046FF
:103C7000009B83F0080353EA0A030AD15CEA0102BD
:103C800001D1620705D530228DF804204FF00108DC
:103C90007F1E582804D034A003900EA802900DE097
:103CA00036A0F9E753466046009AFCF793FC844639
:103CB0000398825C0298401E029002705CEA010048
:103CC000F0D1029806A9081A00F1200A600702D56F
:103CD00024F4803400E00127574502DDA7EB0A00F9
:103CE00000E0002000EB0A01009005984144401AD2
:103CF0000590E00306D45B462146179A059800F02C
:103D0000B3F90544002706E001A85A46C05D17999B
:103D100090476D1C7F1C4745F6DBE0030CD55B46E6
:103D20002146179A059800F09FF9054404E03020D9
:103D30005A46179990476D1C0099481E009000291B
:103D4000F5DC08E0029802995A460078491C029175
:103D5000179990476D1CBAF10001AAF1010AF1DC34
:103D600065E100000928010030313233343536373F
:103D700038396162636465660000000030313233B7
:103D80003435363738394142434445460000000057
:103D900000F058F90544761C307800287FF4ECAD2B
:103DA00019B02846BDE8F08F620700D4062709F154
:103DB000070222F0070CFCE80223E14603F000486A
:103DC0005FEA080C02D00FF2702C0DE05FEA045C91
:103DD00002D50FF2682C07E05FEAC47C02D00FF234
:103DE000602C01E0AFF2700C4FF0FF3823F000437D
:103DF000CDF850C065280CD006DC452809D04628EF
:103E00001DD047283DD13DE0662818D067287ED1D7
:103E100038E00021112F01DB112000E0781CCDE9F2
:103E2000000106A90EA8FFF7DDFCDDE90F010E9ADF
:103E300003910021009207F1010A04914DE04FF037
:103E400000400097CDE9011006A90EA8FFF7CAFCB3
:103E5000DDE90F0203920E9B11990022DDF80CA000
:103E60000093049211B9791C00EB010AB7EB0A0028
:103E700004D4C0F1FF3007F1010A0490AAEB070057
:103E8000019044E0012F00DA01270021112F01DD0C
:103E9000112000E03846CDE9000106A90EA8FFF781
:103EA000A1FCDDE90F010E9A03910021049100921B
:103EB000BA4621070CD40399514500DA8A46BAF173
:103EC000010F05DD009AAAF10101515C302908D0EB
:103ED000B84202DA10F1040F06DA0121CDE901102F
:103EE00015E0AAF10101E9E7002805DC0499014485
:103EF0000491AAEB000102E0411C514500DD8A4615
:103F00000499401A401C01904FF000400290200795
:103F100004D40198504501DBCDF8048000208DF8D1
:103F20004F0002980DF14F07B0F1004F25D02B2024
:103F30000E9002984FF0020800280CDA40420290DE
:103F40002D200E9007E00A210298FCF72DFB30315E
:103F5000029007F8011DB8F10001A8F10108F2DC98
:103F600002980028EFD1791E0E980870307800F082
:103F7000200040F0450007F8020D12A8C01B00F118
:103F800007081498007800B1012000EB0A0101989D
:103F900001EBE07105984144401A401E0590E00392
:103FA00006D45B462146179A059800F05DF8054453
:103FB0001498007818B15A46179990476D1CE00381
:103FC00024D55B462146179A059800F04DF8054424
:103FD0001CE00498002807DBDDE90301884203DDCB
:103FE0000098405C179901E0179930205A46904795
:103FF000049805F10105401C04900198401E0190B1
:1040000004D12E205A46179990476D1CBAF1000131
:10401000AAF1010ADDDC05E017F8010B5A461799F1
:1040200090476D1CB8F10001A8F10108F4DC5B4673
:104030002146179A0598ABE62D0000002B000000E2
:10404000200000002DE9F041044600251E461746D9
:10405000880404D405E039462020B0476D1C641E56
:10406000F9D52846BDE8F0812DE9F0410446002548
:104070001E469046C80301D5302700E0202788045B
:1040800004D505E041463846B0476D1C641EF9D59D
:104090002846BDE8F081000010B504460420FDF775
:1040A000D3FB0148046010BD2000002070B5054618
:1040B00000244FF47A7603E0304600F005F8641CE3
:1040C000AC42F9D370BD000070B54FF0E02500217F
:1040D0006C69094AAB6912685043AA699A42FCD0DC
:1040E00002D2A3EB020302E0A4EB0206334419441C
:1040F00013468142F1D370BD2000002038B504463C
:104100008DF800000223012269460248FEF717FAE3
:10411000204638BD640000207CB5FCF7D3FF08239F
:10412000022219214FF4B470FEF762FFB420FFF7AA
:10413000B3FFFEF781FCFEF761FCFEF789FEFEF798
:104140009BFEFEF753FEFEF73DFF01224549464820
:10415000FEF7B2F9FEF7D0FBFEF736FB4348FDF75A
:104160001FFCFCF7DBFB00F003F94FF6FF7630464F
:1041700000F0A0F84FF478400324CDE9004010226D
:104180003B4B1146002000F0ABF81F25394B1022A5
:1041900030210020CDE9004500F0A2F8344B102278
:1041A000603330215020CDE9004500F099F802201D
:1041B000CDE900052F4B1022403B3021A02000F01C
:1041C0008FF840F2E5720521002000F01AFA4FF452
:1041D0001670FCF762FE304600F06CF8FCF74CFC01
:1041E000FEF796FCFEF7CAFCFEF7FCFC0021224815
:1041F000FDF772FF04212048FDF76EFF00211F48E4
:10420000FDF76AFF00211E48FDF766FF1A494B20A3
:104210000A6850630968886318490968486318493F
:1042200009684863FEF712FDFEF746FDFEF776FDCE
:10423000FEF7A8FD18211348FDF724FD18211248A8
:10424000FDF720FD18211148FDF71CFD182110482D
:10425000FDF718FD0FA0FFF7A1FABDE87C40FCF7C1
:104260007FBB000002000020A40000208403002087
:10427000685000086851000874040020B004002051
:10428000EC04002094020020D00200200C03002047
:10429000480300205B696E666F5D206D61696E2E5C
:1042A00063203A20696E69742066696E6973686577
:1042B000640A0A0070B5064600218623EF220846EC
:1042C00000F036F900250024304600F05BFA641C4B
:1042D000A4B2872CF8D36D1CADB2F02DF3D370BD12
:1042E0002DE9FF5F9246D70801EB0A02521E93B2F6
:1042F0000E9C421E04FB0A2292B200F019F9002023
:1043000026E003984FF6FF7B09FB0705DDF83880B0
:1043100017E0002610E008242878611EC84010F03D
:10432000010F01D00F9800E0584600F02BFA641EF0
:10433000002CF1DC6D1C761CBE42ECDBE91B17FB8C
:104340000A15B8F1010101F0FF08E2D209F10100FC
:1043500081465045D5DBBDE8FF9F10B514460B469E
:10436000024600F0E5F82046BDE8104000F00ABA29
:1043700070B56D4C012251032046FCF790FE0122DE
:1043800091032046FCF78BFE684DA41500222146C0
:104390002846FCF784FEC820FCF77FFD0122214659
:1043A0002846FCF77CFE6420FCF777FD362000F001
:1043B000A9F9A02000F066F93A2000F0A3F9052041
:1043C00000F060F9B22000F09DF90C2000F05AF9DD
:1043D0000C2000F057F9002000F054F9332000F0D1
:1043E00051F9332000F04EF9B72000F08BF9352059
:1043F00000F048F9BB2000F085F9372000F042F9C1
:10440000C02000F07FF92C2000F03CF9C22000F021
:1044100079F9012000F036F9C32000F073F9122079
:1044200000F030F9C42000F06DF9202000F02AF9E6
:10443000C62000F067F90F2000F024F9D02000F02A
:1044400061F9A42000F01EF9A12000F01BF9E02082
:1044500000F058F9D02000F015F9042000F012F90E
:104460000D2000F00FF9112000F00CF9132000F0DE
:1044700009F92B2000F006F93F2000F003F9542041
:1044800000F000F94C2000F0FDF8182000F0FAF8D8
:104490000D2000F0F7F80B2000F0F4F81F2000F0DA
:1044A000F1F8232000F0EEF8E12000F02BF9D02005
:1044B00000F0E8F8042000F0E5F80C2000F0E2F845
:1044C000112000F0DFF8132000F0DCF82C2000F0C1
:1044D000D9F83F2000F0D6F8442000F0D3F851205E
:1044E00000F0D0F82F2000F0CDF81F2000F0CAF81F
:1044F0001F2000F0C7F8202000F0C4F8232000F0AF
:10450000C1F8212000F0FEF8112000F0FBF878201F
:10451000FCF7C3FC292000F0F5F8BDE870404FF629
:10452000FF70FFF7C7BE000000100240000C024001
:104530002DE9F04107461C4616460D462A2000F09C
:10454000E1F82837B8B200F01DF92836B0B200F013
:1045500019F92B2000F0D6F83435A8B200F012F982
:104560003434A0B200F00EF9BDE8F0412C2000F088
:10457000C9B800002DE9F74F1548009F002489466F
:1045800000EB0218FF1D09EB040083B281B2BAB23E
:104590000098FFF7CDFF08EB0400A0F58050002540
:1045A00090F8006E4FF4784A4FF6FF7BF00701D089
:1045B000504600E0584600F0E5F86D1C7608EDB274
:1045C000082DF3D3641CE4B2102CDCD3BDE8FE8FBD
:1045D000F84900082DE9F04107464FF6FF701646EE
:1045E000002400EA011507E007EBC400294680B269
:1045F000FFF7C0FF641CA4B2325D002AF4D1BDE80D
:10460000F0812DE9FC41054642F21070B2FBF0F05A
:104610008DF800004FF47A70B2FBF0F30A20B3FB80
:10462000F0F400FB14338DF801306423B2FBF3F394
:10463000B3FBF0F400FB14338DF80230B2FBF0F35F
:10464000B3FBF0F400FB14338DF80330B2FBF0F34E
:1046500000FB13208DF804004FF6FF7000246E4617
:1046600000EA0117305D39463030C2B205EBC400B4
:1046700080B2FFF77FFF641CE4B2052CF2D3BDE8E3
:10468000FC8100002DE9F047DFF8708005464FF40B
:10469000804A08240022514646464046FCF7FFFC6B
:1046A0000122D1033046FCF7FAFC154FE601002247
:1046B00031463846FCF7F3FC4FF4007914E0280645
:1046C00001D5012200E0002249463846FCF7E7FC0C
:1046D000012231463846FCF7E2FC002231463846DA
:1046E000FCF7DDFC6806050E641EE4B2E7D2514615
:1046F0004046BDE8F0470122FCF7D1BC0010024063
:10470000000C02402DE9F047DFF8708005464FF4B9
:10471000804A08240022514646464046FCF7BFFC2A
:10472000002221033046FCF7BAFC154FE6010022B7
:1047300031463846FCF7B3FC4FF4007914E0280604
:1047400001D5012200E0002249463846FCF7A7FCCB
:10475000012231463846FCF7A2FC00223146384699
:10476000FCF79DFC6806050E641EE4B2E7D25146D4
:104770004046BDE8F0470122FCF791BC0010024022
:10478000000C02402DE9F05FDFF8749005464FF40D
:10479000804B1024002259464E464846FCF77FFCC9
:1047A0000122D1033046FCF77AFC164FA601002205
:1047B00031463846FCF773FC4FF4007A4FF6FF7829
:1047C00014E0280401D5012200E0002251463846B9
:1047D000FCF765FC012231463846FCF760FC0022FC
:1047E00031463846FCF75BFC08EA4505641EE4B236
:1047F000E7D259464846BDE8F05F0122FCF74FBCBE
:1048000000100240000C02402DE9F0478146DDE92E
:1048100008A01D4616468846012801D00C462EE009
:104820000F460CE04C4606E0524639462046FFF75C
:1048300094FD641CA4B2B442F6D97F1CBFB2AF424F
:10484000F0D9BDE8F087444501D0AC420BD14F46CA
:1048500006E0524621463846FFF77FFD7F1CBFB277
:10486000B742F6D909E0524621464846FFF775FDA2
:10487000524621463046FFF770FD641CA4B2AC429C
:10488000E1D9DEE7FFF748FC0C4C0D4D0020FDF7A9
:10489000CDFF6070207808B9FDF70CFF2078022862
:1048A00001D1FCF71BF82078012801D1FEF746F86A
:1048B00002212846FCF7EFFBE8E70000000000209B
:1048C0000004024070B51D462DED028B8AB0012315
:1048D00005E004788C4201D15B1CDBB2401C9342A2
:1048E000F7D100226C4603E0A354521CD2B2401C04
:1048F00003788B4206D00D2B04D00A2B02D00BB1CB
:10490000112AF1D30023A3548DF81130184605AEB7
:104910000FE02E2A04D1491C8DF811108DF82510B6
:104920009DF81110625C3254401C491CC0B28DF8D5
:1049300011109DF81110625C0AB11129E9D33354AA
:104940009DF825008DF81100401C8DF8250030469B
:10495000FBF76CFCFBF7FFFD41EC100B9FED0D8BA3
:104960000CE053EC182B51EC100BFBF785FD41ECE0
:10497000100B9DF81100401C8DF811009DF81100DE
:10498000205C0028EDD185ED000B0AB0BDEC028B58
:1049900070BD000000000000000024403EB501236F
:1049A00005E004788C4201D15B1CDBB2401C9342D1
:1049B000F7D100226C4603E0A354521CD2B2401C33
:1049C00003788B4206D00D2B04D00A2B02D00BB1FA
:1049D0000A2AF1D30020A0542046FBF727FC3EBD55
:1049E0000000000001020304010203040607080995
:1049F000000610160006101600000000000000005F
:104A0000000000000000000000000008080808087E
:104A100008080000080800000048242412000000D4
:104A200000000000000000000000004848487E240C
:104A300024247E24242400000000103C5252121C26
:104A400030505052523C1010000000222515150D18
:104A50002A585454522200000000000C1212120A6C
:104A600076252919916E000000060404020000005A
:104A7000000000000000000000402010100808089E
:104A80000808081010204000000204080810101048
:104A900010101008080402000000000008086B1C39
:104AA0001C6B08080000000000000000001010103F
:104AB000FE101010000000000000000000000000C8
:104AC00000000000060404020000000000000000D6
:104AD0007E00000000000000000000000000000058
:104AE00000000000060600000000402020201010FA
:104AF0000808080404020200000000182442424290
:104B00004242424224180000000000101C10101005
:104B100010101010107C00000000003C4242424087
:104B200020100804427E00000000003C4242402069
:104B300018204042423C0000000000203030282471
:104B40002422FE2020F800000000007E0202021E47
:104B500022404042221C0000000000182402023AB9
:104B600046424242443800000000007E42202010AD
:104B700010080808080800000000003C42424224D7
:104B800018244242423C00000000001C22424242E3
:104B9000625C40402418000000000000000018186B
:104BA00000000000181800000000000000000008CD
:104BB0000000000000080808000000402010080461
:104BC00002040810204000000000000000007E00E9
:104BD000007E000000000000000000020408102019
:104BE00040201008040200000000003C4242462021
:104BF00010101000181800000000001C225A555513
:104C00005555553A423C000000000008081814149D
:104C1000243C224242E700000000001F2222221E04
:104C200022424242221F00000000007C4242010159
:104C300001010142221C00000000001F22424242EA
:104C400042424242221F00000000003F4212121E58
:104C500012120242423F00000000003F4212121EA8
:104C600012120202020700000000003C2222010191
:104C700001712122221C0000000000E74242424252
:104C80007E42424242E700000000003E0808080859
:104C900008080808083E00000000007C10101010F2
:104CA000101010101010110F0000007722120A0EC1
:104CB0000A121222227700000000000702020202FC
:104CC00002020202427F00000000007736363636CC
:104CD000362A2A2A2A6B0000000000E346464A4A88
:104CE00052525262624700000000001C22414141C2
:104CF00041414141221C00000000003F424242422B
:104D00003E020202020700000000001C2241414155
:104D10004141414D321C60000000003F4242423E92
:104D20001212222242C700000000007C424202040C
:104D300018204042423E00000000007F4908080859
:104D400008080808081C0000000000E74242424230
:104D500042424242423C0000000000E7424222241C
:104D600024141418080800000000006B2A2A2A2ABC
:104D70002A36141414140000000000E742242418FA
:104D80001818242442E7000000000077222214149F
:104D900008080808081C00000000007E21201010F0
:104DA00008040442423F0000007808080808080888
:104DB000080808080808780000000204040408082D
:104DC0000810102020204040001E1010101010105D
:104DD0001010101010101E00001824000000000019
:104DE00000000000000000000000000000000000C3
:104DF0007E00000000000000000608000000000027
:104E00000000000000000000000000000000001C86
:104E100022302C22326C0000000000000302021A33
:104E200026424242261A000000000000000000381E
:104E30004402020244380000000000006040407C50
:104E40004242424262DC0000000000000000003CE0
:104E500042427E02423C0000000000003048083E12
:104E600008080808083E0000000000000000007C60
:104E700022221C023C42423C000000000302023A93
:104E80004642424242E700000000000C0C00000EC7
:104E900008080808083E0000000000303000003814
:104EA000202020202020221E000000000302027289
:104EB000120A0E1222770000000000080E080808EF
:104EC00008080808083E0000000000000000007FFD
:104ED0009292929292B70000000000000000003B06
:104EE0004642424242E70000000000000000003C51
:104EF00042424242423C0000000000000000001B11
:104F000026424242261A0207000000000000005814
:104F100064424242645840E0000000000000007714
:104F20004C040404041F0000000000000000007C8A
:104F300042023C40423E0000000000000008083EE3
:104F40000808080848300000000000000000006366
:104F50004242424262DC0000000000000000007794
:104F6000222214140808000000000000000000DBEA
:104F700091525A2A24240000000000000000006E14
:104F8000241818182476000000000000000000E734
:104F90004224241818080806000000000000007EC3
:104FA00022100808447E000000C02020202020207D
:104FB000102020202020C000101010101010101001
:104FC0001010101010101010000304040404040446
:104FD0000804040404040300045A20000000000034
:104FE0000000000000000000000023FC10401080C2
:104FF00001440668F0B01128166810A41124162088
:1050000010A0284047FE00000000FFC00040004400
:10501000004800500060005000480044002000207C
:105020000012000A0006000208101D10F0901090F7
:105030001010FD10109038903410501E53F0901046
:10504000101010101010101010201020102013FE3F
:10505000FC201020102015FC18843088D0481050F7
:10506000102010505188260600007FFC020002002C
:10507000020002003FF00410041004100410081095
:1050800008100810FFFE000000001FF810081008AC
:1050900010081FF81008100810081FF81008100852
:1050A000200820084028801008200820FFFE082043
:1050B00000000888089010A030C0508091801282B3
:1050C00014821082107E10000100F90809080910EE
:1050D00009207940410047FE41407920092009100C
:1050E000090809445182210001000100010001006A
:1050F0003FF8210821082108210821083FF821084C
:1051000001000100010001000200020002FC7F20FA
:10511000014000840764381C0000FFFE0440044086
:10512000044008423042C03E00207E20022004207D
:10513000082008A80AA40CA43922C9220A2208209F
:105140000820082028A010400004000E7CF04480B5
:105150004480448044FE7C88448844884488448851
:105160007C88450801080208007827C012481150C1
:1051700087FC41504248140613F82248E24823F8BD
:105180002248224823F8020802100110F91027BE15
:105190002240220023BEFA8A228822A822AE3AA800
:1051A000E4A845A8085E108000701F801000100061
:1051B0001FF8108010801080FFFE01000100210800
:1051C000210821083FF8000800404040404040408E
:1051D00040404141414141404040404040404040CA
:1051E000404040404040404040050202020202026E
:1051F00002020202020202020220202020202020BD
:1052000020202002020202020202909090909090D0
:10521000101010101010101010101010101010108E
:105220001010101002020202020288888888888802
:1052300008080808080808080808080808080808EE
:10524000080808080202020240000000C9510008D4
:10525000705200080000002064000000C4370008FD
:10526000D452000864000020C4080000D4370008AD
:1052700000000000010000000024F4000000000015
:1052800000000000010203040607080900000000F6
:10529000000000000100000001000000000000000C
:1052A00000000000000000000000000000000000FE
:1052B00000000000000000000000000000000000EE
:1052C00000006400070069000C00000000000000FE
:0452D00000000000DA
:04000005080001AD41
:00000001FF
