:020000040800F2
:10000000F00A0020C10100084B7F0008FF3E0008F5
:10001000497F00085B0B0008E9960008000000001B
:100020000000000000000000000000004184000803
:10003000310F0008000000007D820008F5840008F0
:10004000DB010008DB010008DB010008DB01000820
:10005000DB010008DB010008DB010008DB01000810
:10006000DB010008DB010008DB010008DB01000800
:10007000690E0008DB010008750E0008DB010008AE
:10008000DB010008DB010008DB010008DB010008E0
:10009000DB010008DB010008DB010008DB010008D0
:1000A000DB010008DB010008DB010008DB010008C0
:1000B000DB010008DB010008DB010008DB010008B0
:1000C000DB010008DB010008DB010008DB010008A0
:1000D000DB010008DB010008DB0100087D96000859
:1000E000DB010008DB010008DB010008DB01000880
:1000F000DB010008DB010008DB010008DB01000870
:10010000DB010008DB0100084D850008DB01000869
:10011000DB010008DB010008DB010008DB0100084F
:10012000DB010008DB010008DB010008DB0100083F
:10013000DB010008DB010008DB010008DB0100082F
:10014000DB010008DB010008DB010008DB0100081F
:10015000DB010008DB010008DB010008DB0100080F
:10016000DB010008DB010008DB010008DB010008FF
:10017000DB010008DB010008DB01000800000000D3
:10018000DB010008DB010008DB010008DB010008DF
:10019000DB010008DB010008DB010008DB010008CF
:1001A000DB010008DB010008DB010008DFF80CD0F0
:1001B00000F0D0FB00480047D5A10008F00A00205D
:1001C0000648804706480047FEE7FEE7FEE7FEE7F1
:1001D000FEE7FEE7FEE7FEE7FEE7FEE7F98400083C
:1001E000AD01000840EA01039B0703D009E008C9FC
:1001F000121F08C0042AFAD203E011F8013B00F8EC
:10020000013B521EF9D27047D2B201E000F8012B37
:10021000491EFBD270470022F6E710B513460A4686
:1002200004461946FFF7F0FF204610BD10B5002226
:1002300000E0521C835C8C5CA34201D1002BF8D1FE
:10024000D8B2E1B2401A10BD70B5064609F05EFAA8
:10025000046805460A220021304600F07DFA2C6031
:1002600070BD2DE9FE4F804681EA0300C00F0C46A9
:10027000009021F0004123F00045B8EB0200A941B5
:1002800005D24046214690461C460B46024623F0C6
:100290000040104347D0270DC7F30A00C3F30A51AB
:1002A0000290401A019040286BDAC3F3130040F427
:1002B000801B0098924620B10023D2EB030A63EB27
:1002C0000B0B01985946C0F14002504600F013FA5A
:1002D00006460D4650465946019A00F02BFA10EB9F
:1002E00008006141002487EA115284EAE7731A4347
:1002F00040D0009A62B3019A012A4FEA075215DCF6
:10030000001B61EB02014FF0004202EA0752CDE907
:100310000042001C41F5801132462B4600F063FA82
:1003200003B0BDE8F08F40462146F9E7001B61EBC2
:100330000201001C41F5801300185B412018A2F552
:10034000001747EB030140EAD570B6196D4111E083
:100350006D084FEA360645EAC0754FEA0752001BA2
:1003600061EB0201001C41F5801149084FEA3000A1
:100370000019514132462B4603B0BDE8F04F00F062
:1003800023BA0098012240000023D0EB020263EB65
:10039000E073009821464FEAE074B8EB000061EB8F
:1003A0000401E9E783F000435BE781F0004158E78F
:1003B0002DE9FE4F81EA030404F0004421F00041DE
:1003C00000944FF0000B23F0004350EA01045ED08C
:1003D00052EA03045BD0C3F30A54C1F30A552C4418
:1003E000A4F2F3340194A0FB0254C1F3130141F4CD
:1003F0008011C3F3130343F4801301FB024400FB99
:10040000034E840A970A44EA815447EA8357A4FBBF
:10041000076802958D0A05FB07854FEA932C04FBBC
:100420000C542705029D4FEA065847EA1637B5EBEC
:1004300008056EEB070C870E920E47EA811742EA19
:100440008312A7FB0201B6EB0B0164EB00042B0D3A
:1004500043EA0C335E1844EB1C50DA465146E7FB86
:100460000201C5F313044FEA0B3343EA14534FEA76
:100470000432019C43EA0603A4F10C040294009C9C
:10048000CDE900B400F0AFF903B0BDE8F08F002073
:100490000146F9E72DE9F04D81EA030404F0004B31
:1004A00021F0004514464FF0000A23F0004150EAC5
:1004B000050220D054EA01021DD0C5F30A570246B6
:1004C000C5F31303C1F31300C1F30A5640F48015BA
:1004D00043F48013A7EB0608101BD64608F2FD383C
:1004E00073EB050002D308F1010801E092185B41AB
:1004F000B8F1000F03DA00200146BDE8F08D0020BE
:100500004FF48011064684460EE0171B73EB050777
:1005100005D3121B63EB050306434CEA010C4908A3
:100520004FEA300092185B4150EA0107EDD152EAE0
:10053000030012D082EA040083EA0501084305D0D3
:10054000101BAB4106D20122002306E000224FF02F
:10055000004302E06FF0010253101AEB06004CEB6F
:10056000085110EB0A0041EB0B01BDE8F04D00F023
:100570002BB90EB5C10F80EAE0700844CA0700210C
:1005800040F233438DE80E000A460B4600F02BF98B
:1005900003B000BD0EB540F2334102910021CDE918
:1005A00000110A460B4600F01EF903B000BDC1F36E
:1005B0000A5210B5C1F3130140F2FF3341F4801128
:1005C0009A4201DA002010BD40F233439A42A2F26F
:1005D000334203DC524200F09DF810BD904010BD44
:1005E00000F0004230F000400AD0C10D01F560710A
:1005F000C0F3160042EA0151C20840071143704798
:10060000002001467047000030B5041E71F100045F
:1006100004DB4FF00044404264EB0101141E73F10F
:10062000000405DB1C464FF00043524263EB040319
:100630008B4208BF824230BD30B5041E71F1000408
:1006400004DB4FF00044404264EB0101141E73F1DF
:10065000000405DB1C464FF00043524263EB0403E9
:10066000994208BF904230BD30B50B46014600208C
:100670002022012409E021FA02F59D4205D303FA64
:1006800002F5491B04FA02F52844151EA2F10102E5
:10069000F1DC30BD2DE9F05F0546002092469B4617
:1006A00088460646814640241BE028464146474688
:1006B000224600F02FF853465A46C01A914110D3F3
:1006C00011461846224600F016F82D1A67EB01086D
:1006D0004F4622460120002100F00DF817EB0009DB
:1006E0004E41201EA4F10104DFDC484631462A4673
:1006F0004346BDE8F09F202A04DB203A00FA02F1CD
:10070000002070479140C2F1200320FA03F31943FF
:1007100090407047202A04DB203A21FA02F00021A1
:10072000704721FA02F3D040C2F120029140084301
:1007300019467047202A06DBCB17203A41FA02F00F
:1007400043EAE07306E041FA02F3D040C2F120022E
:1007500091400843194670472DE9F04791460F46EE
:1007600080460446002614F8015B2DB100F004F920
:100770000068405DC007F6D12B2D02D02D2D18D07A
:10078000641E4A463946204600F0FAF827B1396817
:10079000A14201D1C7F8008071054FF002040BD5CA
:1007A0004042002803DD08F0B1FF0460A007BDE867
:1007B000F08746F48066E4E70028F8DA08F0A6FF40
:1007C00004606FF00040F2E710B5141E73F10004EE
:1007D00008DA401C41F1000192185B411A4301D133
:1007E00020F0010010BD2DE9F04D92469B4611B15D
:1007F000B1FA81F202E0B0FA80F220329046FFF7BF
:100800007AFF04460F4640EA0A0041EA0B015346CC
:100810005A46084313D0114653EA010019D0C8F1D3
:1008200040025046FFF776FF05460E4650465946B1
:100830004246FFF760FF084305D0012004E0204650
:100840003946BDE8F08D0020054346EAE0762C43AA
:1008500037430A986305E40AA0EB08000022FD0A6A
:1008600044EA47540A3002D500200146E9E7010571
:1008700010196941DDE9084500196941BDE8F04DED
:10088000A2E72DE9F04D00231A461B1A8A4103DB2B
:1008900000200146BDE8F08DC1F30A52C1F31301F7
:1008A00041F480154FF0000BD10702D100186D41C3
:1008B000521E0027044640F2FF11384601EB620A3F
:1008C0003E468046024600204FF48011FFF722FF8B
:1008D000C2197141BB1846EB0100B4EB030C75EB78
:1008E000000C04D3E41A65EB000517460E462419E4
:1008F00008F101006D4180463428E3DDF91946EB2B
:100900000600091BA84103D24FF0FF32134601E055
:10091000002213461BEB070046EB0A51BDE8F04DE1
:10092000FFF752BFC1F30A52C1F3130140F2FF3384
:1009300041F480119A4202DA00200146704740F2E9
:1009400033439A42A2F2334202DC5242FFF7E2BE44
:10095000FFF7D1BE064C074D06E0E06840F001030A
:1009600094E8070098471034AC42F6D3FFF722FC16
:1009700094EC0008B4EC00080048704714EC000840
:100980002DE9F05F82460078002715468B460AF174
:100990000104B946302801D09DB113E014F8010BD1
:1009A0000127782803D0582801D045B10AE00DB1BD
:1009B000102D07D10027102514F8010B02E008259F
:1009C00000E00A250026B0460EE005FB080005FB06
:1009D00006F1012701EB10461FFA80F8B6F5803FBB
:1009E00000D3B94614F8010B294600F018F8002886
:1009F000EBDABBF1000F05D00FB1641E00E05446E6
:100A0000CBF80040B9F1000F06D008F07FFE0221BC
:100A10000160C81EBDE8F09F48EA0640FAE73A28A0
:100A200000D2303820F02002412A01D3A2F1370051
:100A3000884201D34FF0FF30704703F081BA2DE9AF
:100A4000F0410D460146002004464E1908E0070219
:100A5000301B401E80B200F007F8641C3844E4B23A
:100A6000AC42F4D3BDE8F08110B5044603F010FBAE
:100A7000200AA02101EB4000C0B203F0D9FA03F034
:100A800049FBE0B203F0D4FA03F044FB03F000FBAF
:100A9000A12003F0CDFA03F03DFB002003F094FA0F
:100AA000044603F015FB204610BD2DE9F041164623
:100AB0000D460746002409E0E00025FA00F0C1B227
:100AC000381980B200F006F8641CE4B2B442F3D3E3
:100AD000BDE8F08170B50D46044603F0D9FA200A4E
:100AE000A02101EB4000C0B203F0A2FA03F012FB18
:100AF000E0B203F09DFA03F00DFB284603F098FAEC
:100B000003F008FB03F0E4FABDE870400A2009F0A6
:100B1000B7BA70470E4810B5016886B041F00401BD
:100B200001600068022100F0040005900120CDE979
:100B30000010CDE90210074C6946204601F06AFB1F
:100B400000220221204601F05CFC06B010BD00002E
:100B500030380240000802407047FEE7044805496B
:100B6000097800EB4100028C818903A008F0BEBD2A
:100B700040000020B80000205B4C6F675D2073636D
:100B80007265656E5F617070203A206C6F6361748E
:100B9000696F6E203A202564202564200A00000039
:100BA00070B50E4C0025C4F898520D48016821F02C
:100BB000C0010160016841F0400101600948C0F8CE
:100BC0008C52022004F5267409F068FA0120206096
:100BD000022009F063FA256070BD000000804342E6
:100BE0000020024000004442154810B5016886B05C
:100BF00041F080010160016801F080010591016808
:100C000041F4807101600068012400F48070059057
:100C10004020CDE900040320CDE90240694609489F
:100C200001F0F8FA082000906946074801F0F2FA4E
:100C30000648C0F88C420648C0F8984206B010BD7D
:100C400030380240001C02400020024000004442B4
:100C50000080434270B50E4C0026C4F898620D48DF
:100C6000016821F0C0010160016841F040010160AC
:100C700009480125C0F88C52022004F5267409F0B9
:100C80000DFA2560022009F009FA266070BD000007
:100C90000080434200200240000044422DE9F0471A
:100CA000824619480024016821F0C00101600168F2
:100CB00001601E2009F0F2F90025144EDFF8509073
:100CC0002F464FF00108C6F89872022009F0E6F9A5
:100CD000C6F898826006040ED9F80C0208B1641CAC
:100CE000E4B2022009F0DAF96D1CEDB2082DEAD366
:100CF000BAF1000F04D0FFF753FF2046BDE8F0879C
:100D0000FFF7A8FFF9E700000020024000804342FF
:100D1000000044422DE9F04705461548016821F0DE
:100D2000C0010160016841F040010160114E0027DF
:100D3000C6F89872DFF840803C464FF00109E90997
:100D4000C8F88C126806050E022009F0A7F9C6F84B
:100D50009892022009F0A2F9C6F89872022009F0D0
:100D60009DF9641CE4B2082CE9D3BDE8F0870000CB
:100D700000200240008043420000444270B50F480A
:100D8000016821F0C0010160016841F0400101608B
:100D90000B4E0120C6F88C020A4DC5F898021E20A1
:100DA00005F5267506F5237609F078F900243460F8
:100DB000022009F073F92C6070BD00000020024091
:100DC000000044420080434270B50F48016821F0A2
:100DD000C0010160016841F0400101600B4E00203C
:100DE000C6F898020A4DC5F88C021E2005F5237539
:100DF00006F5267609F052F901243460022009F044
:100E00004DF92C6070BD000000200240008043427C
:100E10000000444270B511480024016821F0C0016F
:100E20000160016801600E4D0120C5F88C020D4E75
:100E3000C6F8980207E0641CE4B2FA2C03D9FFF765
:100E4000C3FF012070BD022009F028F9D5F80C027B
:100E50000028F0D1C6F8980270BD000000200240C2
:100E60000000444200804342014801F09DB8000068
:100E700050010020014801F097B80000A8010020AF
:100E800001681823CAB2103AB2FBF3F2054B6FF3B4
:100E90000901032A9B5C436500D9091D01650846C9
:100EA0007047000064A3000830B50468256825F485
:100EB00080252560046863608368402B036803D045
:100EC00099600068C26030BD9A600068C16030BD42
:100ED00010B501222021144809F01AFA134C0222FD
:100EE00020216060104809F013FAA060032220213D
:100EF0000D4809F00DFAE06004F1100304222021EE
:100F0000094809F099F904F118030522202106483F
:100F100009F092F904F120030622BDE810402021D7
:100F2000014809F089B900005C0300208800002016
:100F3000704770477CB54FF6FF7003F039FA274CC5
:100F40001F204FF4877620603346C322DC214B20DC
:100F500003F030FB4FF4A0752B46C32231464B20E3
:100F600003F028FB4FF4B9763346C32229464B20C1
:100F700003F020FB4FF4D273C32231464B2003F021
:100F800019FB47F6FF70206015A02024CDE9004032
:100F900064231A46E6215A2006F00DF812A0CDE986
:100FA000004064231A464FF48C715F2006F003F86A
:100FB0000FA0CDE9004064231A464FF4A5715F20CD
:100FC00005F0F9FF0CA0CDE9004064231A464FF468
:100FD000BE715F2005F0EFFF7CBD000028000020FF
:100FE0004D414E55414C00004155544F31000000D9
:100FF0004155544F32000000464F4C4C4F570000B3
:101000002DE9FC5F4FF6FF7003F0D2F9F4490020A0
:10101000F44D486088601F274FF48C784346B42213
:10102000F0218C202F6003F0C5FA4346DC22F0212A
:10103000B42003F0BFFA4FF4827443462246F021F5
:10104000DC2003F0B7FA4FF4A0794B46B4224146B6
:101050008C2003F0AFFA4B46DC224146B42003F06B
:10106000A9FA4B4622464146DC2003F0A3FA4FF48E
:10107000B47A5346B42249468C2003F09BFA534677
:10108000DC224946B42003F095FA534622464946ED
:10109000DC2003F08FFA4FF4C87B5B46DC2251461C
:1010A000B42003F087FA5B4622465146DC2003F069
:1010B00081FA5B46B42251468C2003F07BFA47F656
:1010C000FF76C9A018242E60CDE9004078231A4687
:1010D000C821962005F06FFFC6A0CDE90040782317
:1010E0001A46F521912005F066FFC3A0CDE9004026
:1010F00078231A46F521B92005F05DFFBFA0CDE9A0
:10110000004078231A46F521E12005F054FFBCA0E9
:10111000CDE9004078231A4640F21D11912005F0D8
:101120004AFFB8A0CDE9004078231A4640F21D11CD
:10113000B92005F040FFB4A0CDE9004078231A465D
:1011400040F21D11E12005F036FFB0A0CDE90040CE
:1011500078231A4640F24511912005F02CFFACA0EF
:10116000CDE9004078231A4640F24511B92005F038
:1011700022FFA8A0CDE9004078231A4640F245118D
:10118000E12005F018FFA4A0CDE9004078231A461D
:1011900040F26D11B92005F00EFFA0A0CDE900408E
:1011A00078231A4640F26D11E12005F004FF9CA05F
:1011B000CDE9004078231A4640F26D11912005F0E8
:1011C000FAFE43463222F0210A202F6003F0F2F9A2
:1011D00043465A22F021322003F0ECF943468222A2
:1011E000F0215A2003F0E6F94B46322241460A200C
:1011F00003F0E0F94B465A224146322003F0DAF977
:101200004B46822241465A2003F0D4F953463222FB
:1012100049460A2003F0CEF953465A224946322065
:1012200003F0C8F95346822249465A2003F0C2F916
:101230005B465A225146322003F0BCF95B468222BB
:1012400051465A2003F0B6F95B46322251460A2035
:1012500003F0B0F94FF4EB73FA2240F2B3115F20C0
:1012600003F0A8F9AA23C8228221462003F0A2F99C
:101270006CA02E60CDE9004078231A46C8211420C6
:1012800005F099FE5BA0CDE9004078231A46F521D0
:101290000F2005F090FE58A0CDE9004078231A46B3
:1012A000F521372005F087FE54A0CDE900407823D2
:1012B0001A46F5215F2005F07EFE51A0CDE90040E1
:1012C00078231A4640F21D110F2005F074FE4DA040
:1012D000CDE9004078231A4640F21D11372005F071
:1012E0006AFE49A0CDE9004078231A4640F21D115C
:1012F0005F2005F060FE45A0CDE9004078231A4646
:1013000040F245110F2005F056FE41A0CDE9004006
:1013100078231A4640F24511372005F04CFE3DA0D7
:10132000CDE9004078231A4640F245115F2005F0D0
:1013300042FE39A0CDE9004078231A4640F26D11F3
:10134000372005F038FE35A0CDE9004078231A4655
:1013500040F26D115F2005F02EFE31A0CDE9004076
:1013600078231A4640F26D110F2005F024FE2FA0BD
:10137000CDE900407823C8224FF4DC71642005F0E9
:101380001AFE2EA0CDE900407823C82287216E20C6
:1013900005F011FE2BA0CDE9004078231A463C2130
:1013A000142005F008FE29A0CDE9004078231A4654
:1013B0005A21142005F0FFFD0DA0CDE9004078234F
:1013C0001A463C21E62005F0F6FD09A0CDE90040D3
:1013D00078231A465A21E62005F0EDFDBDE8FC9F72
:1013E000B80000202800002044697374616E6365B2
:1013F0000000000031000000320000003300000057
:101400003400000035000000360000003700000006
:101410003800000039000000300000004261000088
:10142000436C0000416E676C650000006261636B95
:1014300020746F20696E697400000000436F6E664F
:1014400069726D006E756D313A0000006E756D3217
:101450003A00000072B6FEE770B5B3F5804F05D0D4
:101460006FF0704140F82210002070BD50F822301B
:10147000084C2340D1E9004544EA05148D688E8963
:101480002D0245EA064589692C430C431C4340F86C
:101490002240E9E70000F0CFF0B50C6850F8245086
:1014A000194A1540D1E90123D1E903671A433E43A4
:1014B00032434E6932438E693243CE6932430E6AFB
:1014C00032434E6A32438E6A3243CE6A3243CE6B27
:1014D00032430E6B32434E6B32432A43082B01D109
:1014E00042F0400240F824204A6BB2F5801F08D138
:1014F0000A6832B14FF480720A61044902681143EC
:1015000001600020F0BD00008000E0FF000110003D
:10151000F0B500EB820253688E8903F04044D1E9B4
:10152000003543EA05138D682D0245EA06452B4335
:101530000E8A0D4D05EB065633430E7D6F0107EB0A
:10154000066633438E693343234353600268D202F5
:1015500007D54268098A22F4700205EB0151114354
:1015600041600020F0BD00000000F0FF30B5D1E97F
:1015700001231A43D1E9033423431A434B690D680D
:101580001A438B691A43D1E90734012D496A05686A
:101590006FF30E0505D01A4322430A432A43026023
:1015A00008E0234329430B43416803606FF30E01B6
:1015B0000A434260002030BD426942EA4101416174
:1015C00000207047F8B514460546D1E900021043E3
:1015D0008A686FF01F03C96803EB421242EA412197
:1015E00008430090286100F011FF064609E0601CE6
:1015F00007D024B100F00AFF801BA04201D90320CC
:10160000F8BDA8698006F2D40020F8BDF0B56FF0EF
:101610000F05D1E9003405EB04145B1E2E012343B2
:101620008C682F0306EB04244FEA054C23430D8AF4
:101630008E8ACC68097E4FF07F4E07EB05450CEB98
:1016400006560EEB0161012A0CD082683F1107EBB0
:10165000043423432B43334302F070420B431343C0
:1016600083600FE0C2682B430B4302F07042816835
:10167000134301F070422103A1F58051314311431E
:10168000C36081600020F0BD70B54A4888B0002476
:10169000016841F080010160016801F0800107915B
:1016A000016841F480710160006802A900F4807053
:1016B00007908020012581E83100032005903E48F5
:1016C00000F0A8FD2802CDE9020502A93B4800F080
:1016D000A1FDFFF789FA3A4EC6F8A042142006F59C
:1016E000287608F0CDFC3560322008F0C9FC8DF872
:1016F000004002226946A12000F086F89DF8000013
:10170000302803D19DF80110032931D09DF8011034
:1017100001292DD002292BD00422694648F240101D
:1017200000F09AFA8DF80440694626A007F0DEFF23
:101730002C48009948F24005C0F8021002208DF8AC
:10174000000001226946284600F0DCFB01226946C0
:10175000E81D00F081FA0A2008F092FC8DF80040A4
:1017600001226946284600F0CDFB08B0002070BD7C
:10177000C9B201EB00211CA007F0B8FF01226946A5
:10178000002000F09DF901226946A42000F098F99C
:1017900016208DF8000001226946802000F090F9A3
:1017A0000C208DF8000001226946882000F088F99D
:1017B000DBE7000030380240001C024000200240FD
:1017C000000044425B696E666F5D2066743532309E
:1017D000362E63203A204354502049443A25730D55
:1017E0000A000000B00000205B696E666F5D206635
:1017F00074353230362E63203A2043545020494409
:101800003A25780D0A0000002DE9F04115460F46F3
:101810000446FFF7B3FA7020FFF77CFAFFF7FAFAF5
:10182000E0B2FFF777FAFFF7F5FAFFF7A7FA7120B2
:10183000FFF770FAFFF7EEFA00246E1E09E0B442DB
:1018400001D0012000E00020FFF728FA3855641C81
:10185000E4B2AC42F3D3BDE8F041FFF7B5BA000003
:101860002DE9F14783B00027904E8DF804704FF0BA
:101870000A0A70788E4C401CC0B2B0FBFAF20AFB28
:101880001201B846707009B10A2870D2874889A140
:10189000801CFEF7CBFC4FF0010203A908B3022025
:1018A000FFF7B2FF9DF80C00010760D000F00F01B8
:1018B000307881425BD8FF228A40D14394F834903B
:1018C00041F0C00184F8341004EB4000A18941814B
:1018D000218CC183032008F0D3FB8DF80470764D72
:1018E00091E048F24E15284600F0B6F99DF80C003C
:1018F0000106D7D5317800F00F008842D2D88DF894
:101900000470012201A9284600F0FCFACAE794F805
:10191000341001228240114270D0644865A1801CBD
:10192000FEF784FC20B365489DF80410042230F8CB
:1019300011006946FFF768FF94F844009DF8001015
:10194000C0079DF8010001F00F0145D000EB012117
:101950009DF8040004EB400001849DF802209DF8EE
:10196000031002F00F0201EB0221818146E065E0E5
:1019700052489DF804100A30042230F811006946DC
:1019800000F06AF994F844009DF80310C0079DF830
:10199000020011D000EB01206988091A9DF80400AB
:1019A00004EB400001849DF800109DF8012001EB3C
:1019B00002212A88511AD8E700EB01219DF8040082
:1019C00004EB400081819DF800109DF8012001EB9F
:1019D00002216A88511A10E000EB01202988091AB7
:1019E0009DF8040004EB400081819DF802209DF8E1
:1019F000031002F00F0201EB022101849DF80400A4
:101A0000401C8DF804009DF8040031788842FFF4F2
:101A10007EAFA08929884FF00108884203D8208C26
:101A20006988884209D99DF80C0000F00F00012850
:101A300012D9E089A081608C208477701B481DA199
:101A4000801CFEF7F3FB00289DF80C004FF6FF7199
:101A50000FD0C00624D01AE0307804EB4000418952
:101A6000A181C08B208480208DF80C0084F83490F4
:101A7000E4E700F08F00802812D008E020F080001A
:101A800003E0A181218400F0E00084F83400707844
:101A9000F02801D986F801A004B04046BDE8F087DF
:101AA00094F834000206ECD5E8E70000B00000200E
:101AB0004000002039313100500200207CEB00084A
:101AC0002DE9F04115460E4604460027FFF756F96A
:101AD0007020FFF71FF9FFF79DF9E0B2FFF71AF941
:101AE000FFF798F9002408E0305DFFF713F9FFF7DE
:101AF00091F9070003D1641CE4B2AC42F4D3FFF7C0
:101B000063F93846BDE8F0812DE9F0433E4889B0DD
:101B10000024016841F080010160016801F080014A
:101B20000791016841F4807101600068802600F42B
:101B30008070079001AA012503270096DFF8CC905A
:101B400082E8B0006946484600F064FB2802CDE90F
:101B5000000569462E4800F05DFBFFF745F8DFF809
:101B6000B480C8F8A0420A2008F08AFAC8F8A05247
:101B70000A2008F085FACDE90064CDE902476946FC
:101B8000484600F047FB642008F07AFA042205A9D1
:101B900048F2401000F060F88DF8184005A91EA02A
:101BA00007F0A4FD24A105A8FEF740FB40BB0220DE
:101BB0008DF8140048F24005012205A9284600F0DE
:101BC000A1F9012205A9E81D00F046F89DF81410BE
:101BD00060290BD21AA007F089FD1E488088A0F565
:101BE000AA41103902D1012000F066F90A2008F05C
:101BF00047FA8DF81440012205A9284600F082F921
:101C000009B00020BDE8F08330380240001C0240DB
:101C100000200240000044425B696E666F5D2067F1
:101C200074393134372E63203A20435450204944CC
:101C30003A25730D0A0000003931343700000000E6
:101C400044656661756C74205665723A25640D0AA8
:101C500000000000500200202DE9F04115460F461B
:101C60000446FFF78BF82820FFF754F8FFF7D2F867
:101C7000200AFFF74FF8FFF7CDF8E0B2FFF74AF878
:101C8000FFF7C8F8FFF77AF82920FFF743F8FFF7C6
:101C9000C1F800246E1E09E0B44201D0012000E02A
:101CA0000020FEF7FBFF3855641CE4B2AC42F3D3CE
:101CB000BDE8F041FFF788B82DE9F14F7A4E0024D6
:101CC0004FF00A0B307882B0401CC0B2B0FBFBF280
:101CD0000BFB1201754DA146307009B10A2878D26C
:101CE00048F24E17012202A93846FFF7B5FF9DF8CA
:101CF00008004FF0000801060AD500F00F00062882
:101D000006D28DF80480012201A9384600F0FAF8C5
:101D10009DF8080001075CD000F00F01062958D299
:101D2000FF2088408DF80400C04395F834A040F0AF
:101D3000C00085F83400A889A882288C5C4F2885CB
:101D40004FF0010995F8341009FA04F0014268D007
:101D500058480422694630F81400FFF77DFFB88820
:101D6000A0F5AA41103908D0A0F5864142391AD011
:101D7000A0F5864184392DD053E095F84400C00782
:101D80002CD09DF800009DF8011000EB012105EB1F
:101D9000440001849DF802109DF8032001EB02210C
:101DA000C1F548713CE095F84400C00716D19DF894
:101DB00000009DF8011000EB012105EB44000184B7
:101DC0009DF802109DF8032001EB0221C1F58871F6
:101DD00026E041E095F84400C00710D09DF80000CF
:101DE0009DF8011000EB012105EB440081819DF875
:101DF00002109DF8032001EB0221018411E09DF8FF
:101E000000009DF8011000EB012105EB4400018466
:101E10009DF802109DF8032001EB0221C1F5F0713D
:101E20008181641CE4B2052C8CD3A9893A884FF0D7
:101E300001092846914203D8018C7A88914209D938
:101E40009DF8081001F00F0101290CD9C189818189
:101E5000418C298486F800809DF8080000F08F00EE
:101E600080280AD018E0818A8181018D0184802137
:101E70008DF8081085F834A0EEE795F834000106D7
:101E800002D520F0800005E04FF6FF71A98129847A
:101E900000F0E00085F834003078F02801D986F8A9
:101EA00000B04846BDE8FE8F38000020400000200A
:101EB0005002002064EB000808B500218DF80010E6
:101EC0008DF801000E489DF80020435C491C1A441F
:101ED000C9B28DF80020B829F5D3D0B2C043401C58
:101EE0008DF80000B822064948F2470000F00AF8D1
:101EF0000222694648F2FF0000F004F8002008BD05
:101F0000ACEA00082DE9F04115460E4604460027CC
:101F1000FEF734FF2820FEF7FDFEFEF77BFF200AC8
:101F2000FEF7F8FEFEF776FFE0B2FEF7F3FEFEF7EF
:101F300071FF002408E0305DFEF7ECFEFEF76AFF5B
:101F4000070003D1641CE4B2AC42F4D3FEF73CFFBB
:101F50003846BDE8F0812DE9F0410446006801688B
:101F600021F00101016000F051FA054600264FF40E
:101F70007A770FE000F04AFA401BB8420AD954F8C9
:101F80004C0F40F0200044F81809032026706070C0
:101F9000BDE8F08120680068C007EBD104F8346F19
:101FA000012060700020F3E72DE9F041056D044643
:101FB000286894F85420082101FA02F210424FF0E8
:101FC00004074FF0000617D020680268520713D5A7
:101FD000026822F00402026094F854008140A96073
:101FE000E06C40F00100E06484F8357084F83460FF
:101FF000A16C09B120468847286894F85430524AA9
:1020000002FA03F1084218D020684169090614D584
:10201000416921F08001416194F8540002FA00F115
:10202000A960E06C40F00200E06484F8357084F848
:102030003460A16C09B1204688472868424A94F868
:102040005430D21C02FA03F1084218D0206801680B
:10205000890714D5016821F00201016094F8540049
:1020600002FA00F1A960E06C40F00400E06484F83A
:10207000357084F83460A16C09B12046884728681F
:1020800094F85430102202FA03F108421AD0206862
:1020900003681B0716D503685F034FF0310327D58C
:1020A000A96020680168090302D484F8353005E08E
:1020B0000068000302D5412084F83500216C09B185
:1020C00020468847286894F85430202202FA03F109
:1020D000084236D020680368DB0632D503685B030C
:1020E0001CD5A9602068016809030DD4616C0FE05C
:1020F0000168C90503D4016821F00801016094F862
:1021000054008240AA60D0E70068000319D5E16B53
:10211000002916D02046BDE8F04108470168C905EE
:1021200003D4016821F01001016094F8540082404A
:10213000AA60E06CE064112084F8350084F8346013
:10214000E5E7BDE8F08100000100800070B5040003
:102150001AD00220636A84F8350021680A6818489A
:102160000240D4E901052843D4E903563543284306
:1021700065692843A5692843E5692843256A2843FA
:102180001043042B02D005E0012070BDD4E90B23DD
:102190001A431043086022685069616A20F0070002
:1021A0000843042901D1A16A084350612046FEF783
:1021B00067FE0020E064012084F83500002070BD37
:1021C0003F8010F070B5044690F8340001281ED00E
:1021D000012084F83400022084F835002068056866
:1021E00025F0010505602046FEF75EFE20680168C7
:1021F00041F01E0101602068416941F080014161A8
:102200002068016841F001010160002070BD0220DA
:1022100070BD00002DE9F84FDFF8A091002209F110
:10222000040A0AF1040B4FF00F080BF1040E01260B
:102230000B6896403340B34271D14C68022C01D0F8
:10224000122C11D1D40800EB84073D6A5407E40E28
:1022500008FA04FC25EA0C05D1F810C00CFA04FCBD
:102260004CEA050CC7F820C007685400032591F814
:1022700004C0A5400CF0030CAF430CFA04FC4CEA7C
:10228000070CC0F800C04F68012F05D0022F03D003
:10229000112F01D0122F11D18768D1F80CC0AF4394
:1022A0000CFA04FC4CEA070CC0F808C04768B743B6
:1022B0000E79C6F3001696403E434660C668AE43AC
:1022C0008D68A5403543C5604C68E4006FD53C4C33
:1022D000256845F480452560246822F0030504F450
:1022E00080440094374C2E19D6F808789407250FAF
:1022F00008FA05F4A743344CA04201D100242EE093
:10230000324CA04201D1012429E0314CA04201D13C
:10231000022424E02F4CA04202D103241FE046E017
:102320002D4CA04201D1042419E02C4CA04201D133
:10233000052414E02A4CA04201D106240FE0294CC8
:10234000A04201D107240AE0274CA04201D1082471
:1023500005E0264CA04201D1092400E00A24AC404B
:102360003C43C6F80848D9F800404D464E689C43A7
:10237000F60300D51C432C60DAF8004055464E6841
:102380009C43B60300D51C432C60DBF800405D463F
:102390004E689C43F60200D51C432C60DEF80040DA
:1023A00075464E689C43B60200D51C432C60521CF7
:1023B000102AFFF43CAFBDE8F88F0000003C01405C
:1023C0004438024000300140000002400004024056
:1023D00000080240000C02400010024000140240BD
:1023E00000180240001C024000200240002402406D
:1023F0000069084000D00120704742694A404261AC
:1024000070470AB1816170470904FBE70148006821
:10241000704700001C00002002480168491C016050
:10242000704700001C0000200B4810B5016841F403
:1024300000710160016841F480610160016841F44C
:1024400080710160052000F0BFF90F2000F006F850
:1024500000F08AF9002010BD003C024010B504468F
:1024600000F060FC4FF47A71B0FBF1F000F094FFE3
:1024700000222146501E00F087F9002010BD2DE9F2
:10248000F041044690F8A00015460F4601281DD0E3
:10249000012684F8A060022084F8A10005EB8500E5
:1024A00000EBC50004EB800034223830FDF79AFEC3
:1024B0002A463946204605F077F82068466284F8B7
:1024C000A160002084F8A000BDE8F0810220FBE7B5
:1024D00070B5040004D094F8A100002510B106E006
:1024E000012070BD84F8A050204600F06FF8022053
:1024F00084F8A1002068816921F070418161D4E9EC
:1025000001100143D4E903021043014320688269AA
:1025100011438161206882682B490A408260A08A49
:10252000020420688368A6693343134383602068EC
:10253000C2680A40C260A08B02042068C368266A91
:1025400033431343C360206802690A400261A08CD0
:10255000020420680369A66A3343134303612068B9
:1025600042690A404261A08D010420684269236BE0
:102570001A430A43426194F83500020294F8360087
:1025800001042068C36A03F07F43C3622068C36A02
:1025900094F83460114333430B43C3622068416BAA
:1025A00041F0040141632068416B41F00201416345
:1025B0002068816941F001018161C4F8A4500120C3
:1025C00084F8A100002070BD00F800F030B5364856
:1025D00087B00025016841F080610160006800F06B
:1025E0008060059030481438016841F400010160B2
:1025F000016801F400010591016841F002010160E8
:10260000016801F002010591016841F020010160BB
:10261000016801F020010591016841F0400101606D
:10262000016801F040010591016841F080010160FD
:10263000016801F080010591016841F48071016039
:102640000068032400F48070059020200090012091
:10265000CDE90204019069461448FFF7DBFD4FF411
:10266000806000900220CDE901050E20CDE90340F5
:1026700069460F48FFF7CEFD4FF40C6000906946A5
:102680000C48FFF7C7FD4FF47E40009069460A48AA
:10269000FFF7C0FD40F2F760009069460748FFF77A
:1026A000B9FD07B030BD00004438024000040240CC
:1026B0000014024000180240001C024000200240AA
:1026C00070B5044690F8A0000E46012820D00125E0
:1026D00084F8A050022084F8A10003EB830000EBF3
:1026E000C30004EB800141F8386F886A3044C1E9C7
:1026F0000102C86A1044C8601A46204604F054FF1C
:102700002068456284F8A150002084F8A00070BDC4
:10271000022070BD2DE9F041044690F8A0000F465C
:1027200001281FD0012584F8A050022084F8A100C0
:1027300003EB830000EBC30004EB80010026E1E91A
:102740000E672046C1E90262C1E90A721A4604F026
:102750002BFF2068456284F8A15084F8A060002017
:10276000BDE8F0810220FBE708B50020009008BD1D
:1027700000F01F02012191404009800000F1E0209B
:10278000C0F8001170470000F0B40E4B1B68C3F393
:102790000223C3F10704042C00D904241D1D072DB6
:1027A00001D2002300E0DB1E012606FA04F56D1EAF
:1027B0000D409D409E40761E164045EA0601F0BC45
:1027C00005F0C4BB0CED00E0064A00F007011068FC
:1027D0004FF6FF03184040EA012003490843106008
:1027E000704700000CED00E00000FA052DE9F84309
:1027F0001D48016841F0805101600068012700F028
:1028000080500090380490FAA0F0DFF86080B0FAB1
:1028100080F048F82070FFF7F9FD04464FF47A7510
:10282000134E04E0FFF7F2FD001BA84213D87068B6
:10283000C003F7D54FF4003090FAA0F0B0FA80F062
:1028400048F82070FFF7E2FD044607E0FFF7DEFDE1
:10285000001BA84202D90320BDE8F88370688003FA
:10286000F4D50020F8E700004038024000000E4296
:10287000007000402DE9F84F04460068DFF87882C8
:102880009E4DC10747F6C07A4FF0E0464FF0010B6E
:102890004FF0000901D180074BD59949C1F86890E4
:1028A000FFF7B4FD074604E0FFF7B0FDC01B642846
:1028B0007ED828680001F7D420789249C0070DD04F
:1028C0009AFAAAF26068B2FA82F2904096FAA6F3F7
:1028D000A268B3FA83F39A40104308602078800717
:1028E00018D5086896FAA6F200F0E040B2FA82F233
:1028F000D0406268237B920142EA036242EA0070A0
:102900000860D8F80010E26921F01F01521E11433F
:10291000C8F800107A49C1F868B0FFF777FD07469C
:1029200004E0FFF773FDC01B642841D8286800014C
:10293000F7D52068410701D4000776D57049C1F862
:102940007090FFF763FD074604E0FFF75FFDC01BD3
:1029500064282DD82868C0438000F6D520786A4FB7
:1029600040074FF0706C29D5386896FAA6F100F050
:10297000E040B1FA81F1C8409AFAAAF22169B2FAAC
:1029800082F291409CFAACF36269B3FA83F39A4005
:10299000114396FAA6F2B2FA82F2904001433960EE
:1029A000D8F800106FF0FF0321F4F851226A00E01C
:1029B00079E003EB02221143C8F8001020780007E9
:1029C00023D538689CFAACF100F07060B1FA81F15F
:1029D000C8409AFAAAF22169B2FA82F291409CFAAE
:1029E000ACF2B2FA82F29040014396FAA6F2A069E4
:1029F000B2FA82F2904001433960D8F80010626A5E
:102A000021F440311143C8F800103D49C1F870B0BD
:102A1000FFF7FCFC064604E0FFF7F8FC801B642887
:102A200041D82868C0438000F6D42078800651D56C
:102A300032484F464030016841F0805101600068E3
:102A4000324E00F080500090306840F4807030606A
:102A5000FFF7DCFC054604E0FFF7D8FC401B6428C8
:102A600021D83068C005F7D5264E143E3068218D38
:102A700000F4407001F4407188422BD03068244942
:102A800020F44070C1F800B00F603060800710D5AE
:102A9000FFF7BCFC054641F2883707E0FFF7B6FCBC
:102AA000401BB84202D90320BDE8F88F3068800788
:102AB000F4D5A06A1149C0F301220831032A13D0CA
:102AC000086820F4F81008603068218DC1F30B010C
:102AD000084330602078C00604D50E4994F82C00D5
:102AE000C1F8E0010020DFE70A680B4B22F4F8127E
:102AF000184002430A60E7E78C3802400038024081
:102B0000000047428438024088380240007000408C
:102B1000400E474200104742FFFCFF0F2DE9F05FD7
:102B2000DFF8F8A104460F46DAF80000DFF8F0817C
:102B300000F00F02C8B27A49814641F2883608F1A6
:102B40000808BA4261D202468AF80020DAF800008A
:102B500000F00F00B8427DD12078800707D5D8F863
:102B60000020A36822F0F0021A43C8F80020207861
:102B7000C0072DD0606801281AD002281BD0032876
:102B800019D009688907002964DAD8F80010474687
:102B900021F003010143C8F80010FFF737FC054698
:102BA000606801280FD0022818D003281CD027E025
:102BB00009688903E7E709688901E4E7FFF726FC6C
:102BC000401BB04258D83868C0F381000128F5D1C5
:102BD00088E0FFF71BFC401BB0424DD83868C0F3BB
:102BE00081000228F5D17DE03868FFF70FFC401B1B
:102BF000B042F9D940E0FFF709FC401BB0423BD896
:102C0000386810F00C0FF6D16CE02078800707D5FB
:102C1000D8F80020A36822F0F0021A43C8F8002078
:102C20002078C0074CD06068012828D0022829D01D
:102C3000032827D009688907002949DAD8F8002035
:102C400022F003020243C8F80020FFF7DFFB05462D
:102C5000606800E03CE001281DD0022829D003284C
:102C600038D0B3464646306810F00C0F28D0FFF736
:102C7000CDFB411B5945F6D90320BDE8F09F0968FB
:102C80008903D9E709688901D6E7FFF7BFFB411B34
:102C9000594502D9F0E7B34646463068C0F3810093
:102CA0000128F2D10CE0FFF7B1FB411B594502D9D5
:102CB000E2E7B34646463068C0F381000228F2D10D
:102CC0008AF80090DAF8000000F00F00B84209D04E
:102CD0000120D2E744462068FFF798FB401BB04232
:102CE000F9D9C9E72078400707D5D8F80010E2687D
:102CF00021F4E0511143C8F800102078000708D5EE
:102D0000D8F80010226921F4604141EAC201C8F8F4
:102D100000100F20FFF7A2FB0020AEE7003C0240AE
:102D20000038024010B500F043F808490968F02265
:102D300092FAA2F201F0F001B2FA82F2D140044A12
:102D4000515CC8400349086010BD000008380240CB
:102D500054A300080800002010B5FFF7E3FF07495F
:102D600009684FF4E05292FAA2F201F4E051B2FA8B
:102D700082F2D140024A515CC84010BD083802407E
:102D800054A3000810B5FFF7CDFF074909684FF4B9
:102D9000604292FAA2F201F46041B2FA82F2D140AA
:102DA000024A515CC84010BD0838024054A30008D4
:102DB00030B51948006810F00C01184812D0184CB2
:102DC00004290ED008290DD1134A121F1168136867
:102DD00001F03F015D0247F6C07304D5B4FBF1F08A
:102DE00003E0204630BDB0FBF1F01168194093FAC2
:102DF000A3F3B3FA83F3D940484311684FF4403248
:102E000092FAA2F201F44031B2FA82F2D140491CA6
:102E10004900B0FBF1F030BD083802400024F40056
:102E200040787D012DE9F84F04460078DFF8FCA2D8
:102E3000BF4DC0074FF0000648D0DAF800105046EA
:102E4000C1F38101012908D00068C0F38100022884
:102E50000AD1281D0068400206D52868800335D5B0
:102E60006068002873D031E0DFF8C49209F10209EC
:102E700089F80060FFF7CAFA074641F2883804E093
:102E8000FFF7C4FAC11B41457AD828688003F7D4FC
:102E9000207989F80000606860B1FFF7B7FA07464B
:102EA00004E0FFF7B3FAC11B4145EDD82868800361
:102EB000F7D50BE0FFF7AAFA074604E0FFF7A6FAFA
:102EC000C11B4145E0D828688003F7D42078DFF89B
:102ED0006492800744D5DAF80010504611F00C0FC8
:102EE0004FF0F80809D00068C0F3810002280BD128
:102EF0008E48001F0068400206D42868800714D559
:102F0000E068012823D110E0E068D0B10120C9F8C1
:102F10000000FFF77BFA074604E0FFF777FAC01BD3
:102F20006428B1D828688007F7D5286898FAA8F2ED
:102F30002169B2FA82F220F0F8009140084328603B
:102F40000EE0C9F80060FFF761FA074605E0EAE025
:102F5000FFF75CFAC01B642812D828688007F7D4F2
:102F60002078000725D5DFF8C4817348616908F12E
:102F70006C0881B101210160FFF748FA074605E0BE
:102F80007EE0FFF743FAC01B642879D8D8F8000028
:102F90008007F6D50DE00660FFF738FA074604E033
:102FA000FFF734FAC01B64286AD8D8F800008007FD
:102FB000F6D42078400753D55C483830016841F09A
:102FC000805101600068DFF8748100F0805000904B
:102FD000D8F8001041F48071C8F80010FFF716FA15
:102FE000074604E0FFF712FAC01B642848D8D8F857
:102FF0000000C005F6D5DFF834B10BF1680B8BF893
:103000000060FFF703FA074641F2883804E0FFF753
:10301000FDF9C11B41457ED8DBF800008007F6D4DE
:10302000207A8BF80000A06868B1FFF7EFF9074637
:1030300004E0FFF7EBF9C11B41456CD8DBF8000059
:103040008007F6D50CE0FFF7E1F9074604E0FFF74B
:10305000DDF9C11B41455ED8DBF800008007F6D4DE
:10306000A069E8B3DAF80010C1F3810102295AD04F
:10307000022806D0C9F86060FFF7C8F904464DE0A1
:1030800049E04F46C9F86060FFF7C0F9064604E022
:10309000FFF7BCF9801B64283DD828688001F7D46D
:1030A000D4E90701084347F6C07191FAA1F1626AB9
:1030B000B1FA81F18A40A16A4FF0FF3303EB51016D
:1030C0004FF4403393FAA3F3B3FA83F399400A43DE
:1030D00010434FF0706292FAA2F2B2FA82F200E06C
:1030E0001FE0E16A914008431049091F0860012070
:1030F0003866FFF78BF9044604E0FFF787F9001BF9
:10310000642808D828688001F7D50AE0FFF77EF91F
:10311000001B642802D90320BDE8F88F28688001CD
:10312000F4D40020F8E70120F6E700000838024058
:103130000038024000004742800E474200700040C5
:1031400070B50D46040003D094F82C0010B107E0D0
:10315000012070BD002084F82D00204600F012F8F8
:10316000022084F82C00211D2068FEF7FFF9D4E925
:1031700000022946FEF74AFA012084F82C000020BC
:1031800070BD0000304800B5016887B041F0010112
:103190000160006800F0010005902B4808380168C4
:1031A00041F004010160016801F00401059101682A
:1031B00041F008010160016801F008010591016812
:1031C00041F010010160016801F0100105910168F2
:1031D00041F020010160016801F0200105910168C2
:1031E00041F0400101600068694600F04000059030
:1031F0000D200090022001900120029003200390F6
:103200000C2004901148FFF705F84CF20370009071
:1032100069460F48FEF7FEFF4FF68370009069463F
:103220000C48FEF7F7FF4FF63F00009069460A484A
:10323000FEF7F0FF48F23710009069460748FEF7A6
:10324000E9FF07B000BD0000383802400008024026
:10325000000C02400010024000140240001802401E
:1032600010B5044690F82C00022809D0022084F8FA
:103270002C002068FEF7A0F9012084F82C00002023
:1032800010BD70B5044690F82C000D4602280CD0F5
:10329000022084F82C002068FEF794F928680228A0
:1032A00004D0012084F82C00002070BD0520F9E72F
:1032B00070B515460E46040003D094F8490010B1CD
:1032C00007E0012070BD002084F84800204600F08F
:1032D0001BF804F108012068FEF7DEF83146A26809
:1032E0002068FEF715F9D4E901022946236BFEF7A1
:1032F000B3F8A168206850F8212042F0010240F89C
:103300002120002070BD00001A4800B5016887B078
:1033100041F001010160006800F0010005901548CE
:103320000838016841F008010160016801F00801F6
:103330000591016841F0100101600068694600F0E4
:10334000100005904EF2B370009002200190012011
:103350000290032003900C2004900748FEF75AFFC8
:103360004FF68070009069460448FEF753FF07B09F
:1033700000BD000038380240000C0240001002403E
:103380004FF0E0210428086903D020F00400086110
:10339000704740F00400FAE710B5401EB0F1807F9E
:1033A00001D3012010BD4FF0E02460610F216017B0
:1033B00004F0CCFD0020A06107202061002010BD9A
:1033C0007047704730B590F83820012A20D001238B
:1033D00080F83830022280F839200268546824F0DE
:1033E00070045460026854680D682C43546002688D
:1033F000946824F0800494600268946849680C43DF
:10340000946080F83930002180F83810084630BDCB
:10341000022030BD10B5040003D094F8390010B17B
:1034200007E0012010BD002084F83800204600F09D
:103430000DF8022084F83900211D206805F08CF871
:10344000012084F83900002010BD000008B5006894
:103450001C4A1D49904211D1086840F008000860DC
:103460000868002200F00800009011463220FFF7A3
:103470008BF9BDE808403220FFF77AB9134A904231
:1034800009D11148001D016841F4802101600068E4
:1034900000F4802009E00E4A904208D1086840F00C
:1034A00080000860086800F08000009008BD094AAC
:1034B0009042FBD1086840F480700860086800F40E
:1034C0008070F2E7000C00404038024000480140A4
:1034D000001C0040002000400168CA6842F0010260
:1034E000CA600068016841F0010101600020704776
:1034F00070B5044690F83800012817D0012584F8EB
:103500003850022084F839002068826822F077025F
:1035100022F47F4282600868502836D00DDC2028D3
:1035200058D005DC80B3102840D150E0022070BD97
:10353000302852D0402839D13EE060282DD0702864
:103540000BD0B0F5805F03D0B0F5005F2ED110E056
:103550002068816821F0070109E0CB68D1E90121E9
:10356000206805F064F82068816841F07701816087
:103570001CE0CB68D1E90121206805F058F82068EB
:10358000816841F48041F2E71EE0CA68496820681A
:1035900005F05FF85021206806E0CA684968206895
:1035A00005F068F86021206805F04BF884F8395080
:1035B000002084F8380070BDCA684968206805F0AA
:1035C00048F840212068EFE700212068ECE710214F
:1035D0002068E9E720212068E6E730212068E3E75A
:1035E0002DE9F0410D46040003D094F8390018B1DC
:1035F00008E00120BDE8F081002084F83800204672
:1036000000F03AF8022084F839002068816821F03F
:1036100007018160211D206804F09EFF20688168F9
:103620008269066A2B68AF690B4340F203318A4313
:1036300042EA0722A968EF6911434FF6FC42914321
:10364000EA6841EA07210A4329692F6A090141EA28
:103650000737696817436D6926F0AA0242EA051226
:10366000114383602068876120680162012084F82B
:1036700039000020BEE7000070B586B00446142172
:103680006846FCF7C8FD454821680024444A0225E5
:103690000126814219D142481430016841F00101EC
:1036A0000160006800F001000590106840F0100013
:1036B00010601068694600F0100005904FF420601B
:1036C0000090CDE90154374845E0354B364810337A
:1036D000B1F1804F18D0354EB14242D1196841F056
:1036E00002011960196801F002010591116841F0A9
:1036F00001011160116801F001010591C0210091E3
:10370000CDE90154694646E0196841F001011960AC
:10371000196801F001010591116841F00101116082
:10372000116801F001010591116841F00201116079
:10373000116801F00201059120210091CDE90154A9
:10374000CDE903466946FEF765FD08200090CDE906
:10375000015417486946CDE90346FEF75BFD06B004
:1037600070BD14488142FAD1186840F00400186016
:10377000186800F004000590106840F00800106020
:103780001068694600F0080005904FF44050009022
:10379000CDE901540848CDE90345DEE700000140CA
:1037A0003038024000100240000002400004004097
:1037B0000004024000080040000C024010B504461E
:1037C000006889B1042904D00122002104F024FFFB
:1037D00020680122042104F01FFF2068016841F0E5
:1037E00001010160002010BD01220021F3E77047B4
:1037F00070B50446006801694FF00005C9438907A8
:1038000015D4C168C943890711D4E91E016101209B
:103810002076206880698007204602D0FFF7E7FF06
:1038200004E000F098F8204600F096F8257620682D
:103830000169C943490717D4C168C943490713D46B
:103840006FF004010161022020762068806910F485
:10385000407F204602D0FFF7CAFF04E000F07BF86B
:10386000204600F079F8257620680169C9430907E8
:1038700016D4C168C943090712D46FF00801016169
:10388000042020762068C0698007204602D0FFF718
:10389000AEFF04E000F05FF8204600F05DF825760A
:1038A00020680169C943C90617D4C168C943C9065C
:1038B00013D46FF010010161082020762068C069E0
:1038C00010F4407F204602D0FFF791FF04E000F0A3
:1038D00042F8204600F040F8257620680169C94387
:1038E000C90708D1C168C943C90704D1891E01614C
:1038F000204600F033F820680169C943090609D45D
:10390000C168C943090605D46FF0800101612046F2
:10391000FFF756FD20680169C943490609D4C1680B
:10392000C943490605D46FF040010161204600F00B
:1039300047F820680169C94389060BD4C168C943A7
:10394000890607D46FF0200101612046BDE8704070
:10395000FFF737BD70BD704770470000F8B51249DA
:103960000068096888421ED110490888401C80B24E
:1039700008800A2817D300200880042004F0A4FC43
:103980000446032004F0A0FC0646022004F09CFC40
:103990000546012004F098FC014633462A4604A05F
:1039A000009405F0A3FEF8BD4C050020C4000020E3
:1039B00025642C2025642C2025642C2025640A00F5
:1039C000704710B504460068416921F080014161EB
:1039D0002068416921F040014161206B08B1FEF788
:1039E000BAFA606B08B1FEF7B6FA012084F8390024
:1039F000002010BD704738B5016804460868CA68E1
:103A0000C0F3000002F4807238B132B1086848682F
:103A10000090E06B40F00100E06308684A69C0F381
:103A2000400002F0010238B132B1086848680090E5
:103A3000E06B40F00400E06308684A69C0F380006E
:103A400002F0010238B132B1086848680090E06BBA
:103A500040F00200E06308684A69C0F3C00002F069
:103A6000010238B132B1086848680090E06B40F05C
:103A70000800E0630868C968C0F3401001F0200145
:103A800018B111B1204605F06FFC20680168C068CC
:103A9000C1F3C01100F0800019B110B1204605F04B
:103AA00071FD21680868CA68C0F3801002F0400206
:103AB000012568B162B1CA68204622F04002CA609E
:103AC00094F8391032290CD080F8395000F00AFAF5
:103AD000E06B002804D084F839502046FFF78AFFB5
:103AE00038BD222180F83910F0E708B501680A686E
:103AF00049680091FFF765FF04F0C2FBBDE808408C
:103B000004F0A0BC70B5040004D094F8390000257E
:103B100010B106E0012070BD84F83850204600F056
:103B200021F8022084F839002068C16821F400518E
:103B3000C160204605F06CFC2068016921F49041C9
:103B400001612068416921F02A0141612068C16852
:103B500041F40051C160E563012084F83900002080
:103B600070BD00002DE9F04186B00646142168467C
:103B7000FCF751FB3B4F306800243B4902220323F2
:103B80000725B8421DD138481430066846F01006A3
:103B90000660006800F010000590086840F0010021
:103BA00008600868694600F00100059058028DE839
:103BB0001500CDE903352D48FEF72CFB06B0BDE816
:103BC000F0812B4FB842F9D127481030076847F4ED
:103BD00080270760006800F480200590086840F0A6
:103BE000020008600868694600F0020005904FF482
:103BF00040608DE81500CDE903351E48FEF70AFB4D
:103C00001E4D1D484FF000672860C5E901744FF450
:103C10008068C5E903486C61AC61EC612C622846A0
:103C20006C62FEF793FA75631348AE635835303013
:103C3000E5E802074020A5E81101104845F81449BD
:103C40005830AC61EC612C626C62FEF77FFA356330
:103C5000002211462720AE63FEF796FD2720FEF7CF
:103C600087FDABE700100140303802400000024001
:103C7000004800400004024028600240500100203B
:103C800037B5044690F839001346012801D01228B0
:103C90002FD1019A4AB343B394F83800012828D0B1
:103CA000012084F83800A262A3850025E56394F81A
:103CB000390012281BD0222084F83900616B0E488D
:103CC000C863616B0D480864616B0D4888642168A6
:103CD000606B091DFEF776FA2068416941F04001EA
:103CE000416184F8385000203EBD01203EBD3220A5
:103CF000E2E702203EBD0000F3920008279300088F
:103D0000D592000890F83930012B01D0122B2BD11D
:103D100031B32AB390F83830012B25D0012380F835
:103D2000383081628285C2850022C26390F83910E2
:103D3000122917D0222180F839100168CB6843F48A
:103D40008073CB6001684B6943F001034B6180F8DD
:103D500038200068C16841F02001C1600020704730
:103D6000012070473221E6E702207047054910B56F
:103D7000884205D104F084FABDE8104004F062BB2B
:103D800010BD00001001002070472DE9F0470446E7
:103D900090F8390099460D46012801D0222856D1C5
:103DA00025B31AB394F83800012850D0012684F8BE
:103DB00038600027E76394F83900222819D01220D0
:103DC00084F83900A284E2844FF48058E08C4B469A
:103DD000401EE084A0684FF0000240454FF0800193
:103DE000204613D105F001FC08BB04E00120BDE82A
:103DF000F0873220E4E728882168C0F30800486093
:103E0000206908B16D1C08E0AD1C06E005F0EDFB73
:103E100068B9216815F8010B4860E08C0028D5D1FD
:103E20004B4600224021204605F0DFFB08B103206D
:103E3000DDE794F83900322805D084F8396084F839
:103E400038700020D3E7222084F83900F7E70220F9
:103E5000CDE70000F7B5044690F83900012801D0FD
:103E6000222837D1019981B37AB394F83800012818
:103E700030D0012084F838002162A284E284002539
:103E8000E56394F83900222822D0122084F8390002
:103E9000236B1148D863236B10481864236B1048B8
:103EA000986420681346266B021D3046FEF78AF997
:103EB00021686FF0400008602068416941F080018E
:103EC000416184F838500020FEBDFFE70120FBE788
:103ED0003220DBE70220F7E7319300085F93000808
:103EE000D59200080349884202D103490120087095
:103EF0007047000010010020880000207047FEE796
:103F000070B50D4C0025C4F890520C48016821F49E
:103F100040610160016841F480610160C4F894521D
:103F2000022004F5247406F0B9F801202060022074
:103F300006F0B4F8256070BD00804342001C0240CA
:103F40000E4810B5016886B041F08001016000683C
:103F5000012400F0800005903020CDE9000402200B
:103F6000CDE9024069460648FEF754F90548C0F815
:103F70009442C0F8904206B010BD000030380240B4
:103F8000001C02400080434270B50D4C0026C4F86E
:103F900090620C48016821F440610160016841F4BD
:103FA000806101600125C4F89452022004F5247454
:103FB00006F074F82560022006F070F8266070BDE7
:103FC00000804342001C02402DE9F047814616481C
:103FD0000024016821F44061016001680160134E12
:103FE000254627464FF00108C6F89072022006F0D9
:103FF00055F8C6F890826006040ED6F8140208B18F
:10400000641CE4B2012006F049F86D1CEDB2082DE5
:10401000EAD3B9F1000F04D0FFF772FF2046BDE8E4
:10402000F087FFF7B1FFF9E7001C02400080434230
:104030002DE9F04105461448016821F44061016012
:10404000016841F480610160104E0027C6F890724B
:104050003C464FF00108E809C6F894026806050ED0
:10406000022006F01BF8C6F89082022006F016F82F
:10407000C6F89072022006F011F8641CE4B2082C15
:10408000E9D3BDE8F0810000001C024000804342FB
:1040900070B50D48016821F440610160016841F488
:1040A00080610160094C0120C4F89402C4F89002B8
:1040B000042004F5247405F0F1FF00256560042058
:1040C00005F0ECFF256070BD001C024000804342FB
:1040D0000E4810B5016821F440610160016841F4A7
:1040E000806101600A4C0020C4F89002C4F8940278
:1040F000042004F5247405F0D1FF012020606060E5
:10410000BDE81040042005F0C9BF0000001C0240BB
:104110000080434270B512480024016821F44061D8
:104120000160016801600F4D0126C5F894623046B8
:1041300005F0B4FFC5F89062012005F0AFFF07E07D
:10414000641CE4B2FA2C03D9FFF7C2FF012070BD52
:10415000D5F814020028F3D1C5F8900270BD000014
:10416000001C02400080434270B52E4800880128A0
:1041700056D12E4D2C4C287804EB400081894B39C8
:1041800078294DD8008CDC284AD34FF48776B0428A
:104190000DD8FCF7E1FC00F065F8287804EB40004E
:1041A00081894B3978293BD8008CB04238D32878A4
:1041B0004FF4A07604EB4000008CB0420DD8FCF721
:1041C000CBFC00F035F8287804EB400081894B39AE
:1041D000782925D8008CB04222D328784FF4B976BC
:1041E00004EB4000008CB0420DD8FCF7B5FC00F0A9
:1041F0002DF8287804EB400081894B3978290FD8B5
:10420000008CB0420CD3287804EB4000008CB0F551
:10421000D27F05D8FCF7A0FCBDE8704000F01CB8C8
:1042200070BD00000400002040000020B800002005
:10423000044910B502200870FCF77BFE02490120FA
:10424000088010BD00000020060000200149032066
:104250000870704700000020014904200870704772
:104260000000002010B5044801240470FCF7C8FECB
:104270000248048010BD000000000020060000205D
:1042800030B5154887B00025016841F00101016093
:10429000016801F001010591016841F080010160B0
:1042A0000068032400F0800005900420CDE900059B
:1042B0000220CDE9020469460848FDF7ABFF2C2037
:1042C000CDE900050120CDE9020469460448FDF767
:1042D000A1FF07B030BD00003038024000000240AE
:1042E000001C02402DE9F04101262E4C2E4F2F4D8F
:1042F00001281CD0207898B104213846FEF778F8C0
:10430000B8B104212846FEF773F890B10821284679
:10431000FEF76EF868B120212846FEF769F840B133
:1043200004213846FEF764F8012825D037E02670CE
:10433000E2E70A2005F0A4FE0020207004213846A0
:10434000FEF756F878B104212846FEF751F868B117
:1043500008212846FEF74CF850B120212846FEF7E8
:1043600047F838B11BE00120BDE8F0810220FBE7EF
:104370000320F9E70420F7E704212846FEF738F880
:1043800001280CD108212846FEF732F8012806D171
:1043900020212846FEF72CF8012800D126700020A5
:1043A000E2E700002400002000000240001C024060
:1043B00070B50E490E4A064608881268002422B1DC
:1043C0003046BDE8704002F0AFBE4D880021454345
:1043D000084602F0C5FC02F073FEB1B2054801E0E8
:1043E0000180641CAC42FBD370BD00005002002071
:1043F0003C030020000008602DE9F05F394C3A4D85
:10440000A071296839B102F0AFFEE88A2080288BBC
:104410006080BDE8F09F33492C232A2589884FF01E
:10442000F00949F2413A2B2645F2105B4FF4305E19
:104430004FF448774FF4A07845F2103C4FF4F072F7
:1044400058B1A4F80080A4F80290514501D061450C
:1044500029D123816581A68139E0A4F80090A4F8D0
:104460000280514501D0614508D123816581A68133
:10447000614531D1A4F8008062802DE0594508D112
:10448000A4F808E04FF4285060814FF42C50A0812C
:1044900006E0A1F5C85063381ED123816681A5814D
:1044A0002280678018E0594508D1A4F808E04FF44D
:1044B000285060814FF42C50A08106E0A1F5C8502F
:1044C000633804D123816581A6812780628061459C
:1044D00002D12280A4F80280BDE8F05F002002F043
:1044E00063BB0000500200203C0300202DE9FE4F7A
:1044F0000026A2EB000882465F1A701E35468946E8
:10450000B8F1000F02DD4FF0010102E003D14FF0DE
:104510000001019102E0C8F100080190002F02DDC6
:104520004FF0010002E003D14FF00000009002E0E4
:10453000C7F1000700904046B84501DD044600E0A1
:104540003C46601C4FF0000B029015E01FFA89F109
:104550001FFA8AF000F016F846443D44A64202DDF8
:104560000199361B8A44A54202DD00992D1B89441E
:104570000BF101001FFA80FB02998B45E6DDBDE8D7
:10458000FE8F000010B5084A084C126822B122685C
:10459000BDE8104002F0FCBD02F0E2FB02F090FD2D
:1045A00003492088088010BD3C030020280000201B
:1045B000000008602DE9F0411C4615460E460746EE
:1045C0000B46FFF793FF3A46234631461046FFF766
:1045D0008DFF23462A4619463846FFF787FF2A46AD
:1045E00023463146BDE8F0411046FFF77FBF2DE975
:1045F000FC5F80460024154603200F46A0EB4506CD
:1046000049E0781B81B208EB040A01901FFA8AF096
:10461000FFF7B8FF381B81B208EB050900901FFABD
:1046200089F0FFF7AFFF07EB040B1FFA8BF11FFABE
:1046300089F0FFF7A7FF07EB05091FFA89F11FFAB9
:104640008AF0FFF79FFFA8EB040A1FFA89F11FFA0F
:104650008AF0FFF797FFA8EB05091FFA8BF11FFA05
:1046600089F0FFF78FFF019881B21FFA8AF0FFF7F8
:1046700089FF009881B21FFA89F0FFF783FF641C5D
:10468000002E03DA06EB8406B61D04E0601B06EB81
:1046900080066D1E0A36AC42B3DDBDE8FC9F00000B
:1046A0002DE9F04104463A480D46006820B1204605
:1046B000BDE8F04102F06CBD364E270A3146B088A5
:1046C0004989A0F513434FEA1528413B0CD0A0F5CA
:1046D000A643103B08D0A0F5AA43103B11D0A0F58B
:1046E000C853633B27D04BE0084602F0DDFC384658
:1046F00002F0CEFCE0B202F0CBFCB08902F0D4FCB8
:1047000038E0084602F0D0FC384602F0C1FC70895F
:10471000401C80B202F0C8FCE0B202F0B9FCB089E3
:1047200002F0C2FC404602F0B3FCB089401C80B2EB
:1047300002F0BAFC21E0B07918B93088001B401EA5
:1047400084B2084602F0B0FC270A384602F0A0FC0A
:10475000E0B202F09DFC384602F09AFCE0B202F0B2
:1047600097FCB08902F0A0FC404602F091FCE8B250
:1047700002F08EFC404602F08BFCE8B202F088FCAE
:10478000054930890880881C0280BDE8F08100005E
:104790003C03002050020020FEFF07602DE9F04F8F
:1047A00095B002F0A5FEFE4D4FF0010AA5F15009AB
:1047B000A88049F2413B45F2103645F2105441F6CB
:1047C000631818B102F05CFD02F091B9F5480027BA
:1047D000016841F002010160006810A900F00200C8
:1047E00000902020CDE9100A0320CDE912A0EE4868
:1047F000FDF710FD4FF020414846C9F80010EB4985
:10480000C0E901171021C9F80C70C0E90471C9F89A
:1048100018700902C9F81C70C0E909718900C0E963
:104820000B71C9F834708901C9E90E7146210B91E9
:104830000F20CDE90907CDE902070490D8480F976A
:1048400002AA09A908975038FEF732FD322005F078
:1048500017FCD32002F028FC02F074F9A88002F0C3
:1048600071F9A88002F06EF94FF6FF7202EA00209B
:10487000A88002F067F9A9885F460843A880B8427B
:1048800048D0D42002F010FC02F05CF9A88002F0BD
:1048900059F9A88002F056F902EA0020A88002F037
:1048A00051F9A9880843A880B04233D04FF45A4048
:1048B00002F0FAFB02F046F9A8804FF45B4002F0E8
:1048C000F3FB02F03FF902EA0020A8804FF45C40BD
:1048D00002F0EAFB02F036F9A9880843A880B0F597
:1048E000004F7DD0A04215D0A12002F0DDFB02F0E8
:1048F00029F9A88002F026F902EA0020A88002F037
:1049000021F9A9880843A0F5AE41A880613901D1F9
:10491000A5F80480A988A6A004F0E8FEA888B842FB
:104920007ED1CF2002F0C0FB002002F0B1FBC120FD
:1049300002F0AEFB302002F0ABFBED2002F0B4FB46
:10494000642002F0A5FB032002F0A2FB122002F07B
:104950009FFB812002F09CFBE82002F0A5FB852054
:1049600002F096FB102002F093FB7A2002F090FBFD
:10497000CB2002F099FB392002F08AFB2C2002F0B8
:1049800087FB002002F084FB342002F081FB022030
:1049900002F07EFBF72002F087FB202002F078FB7C
:1049A000EA2002F081FB002002F072FB002002F0FE
:1049B0006FFBC02002F078FB1B2002F069FBC120D6
:1049C00002F072FB012002F063FBC52002F06CFBD9
:1049D000302002F05DFB302002F05AFBC72000E0DF
:1049E000B7E002F061FBB72002F052FB362002F084
:1049F0005BFB482002F04CFB3A2002F055FB5520AF
:104A000002F046FBB12002F04FFB002002F040FB19
:104A10001A2002F03DFBB62002F046FB0A2000E01F
:104A200099E002F035FBA22002F032FBF22002F006
:104A30003BFB002002F02CFB262002F035FB01207E
:104A400002F026FBE02002F02FFB0F2002F020FBFB
:104A50002A2002F01DFB282002F01AFB082002F099
:104A600017FB0E2002F014FB082002F011FB54206B
:104A700002F00EFBA92002F00BFB432002F008FB22
:104A80000A2002F005FB0F2002F002FB002002F0DA
:104A9000FFFA002002F0FCFA002002F0F9FA0020F0
:104AA00002F0F6FAE12002F0FFFA002002F0F0FA3C
:104AB000152002F0EDFA172002F0EAFA072002F0C2
:104AC000E7FA112002F0E4FA062002F0E1FA2B20C6
:104AD00002F0DEFA562002F0DBFA3C2002F0D8FAAF
:104AE000052002F0D5FA102002F0D2FA0F2002F0D1
:104AF000CFFA3F2002F0CCFA3F2002F0C9FA0F2093
:104B000002F0C6FA2B2002F0CFFA002002F0C0FA21
:104B1000002002F0BDFA012002F0BAFA3F2002F0B4
:104B2000B7FA2A2002F0C0FA002002F0B1FA002001
:104B300002F0AEFA002002F0ABFAEF2002F0A8FA81
:104B4000112002F0B1FA782005F09AFA292001F03C
:104B500011BFAC80DEE6B0427ED1ED2002F0A4FAB7
:104B6000012002F095FAFE2002F092FAEE2002F007
:104B70009BFADE2002F08CFA212002F089FAF12063
:104B800002F092FA012002F083FADF2002F08CFAA0
:104B9000102002F07DFAC42002F086FA8F2015E082
:104BA000500200203038024000040240040100A0FE
:104BB0005B696E666F5D206C63642E63203A204CE7
:104BC00043442049443A25780D0A000002F060FA77
:104BD000C62002F069FA002002F05AFAE22002F040
:104BE00057FAE22002F054FAE22002F051FABF2014
:104BF00002F05AFAAA2002F04BFAB02002F054FA5E
:104C00000D2002F045FA002002F042FA0D2002F0D9
:104C10003FFA002002F03CFA112002F039FA00209D
:104C200002F036FA192002F033FA002002F030FACE
:104C3000212002F02DFA002002F02AFA2D2002F0A5
:104C400027FA002002F024FA3D2002F021FA002089
:104C500002F01EFA5D2000E0FEE302F019FA0020E7
:104C600002F016FA5D2002F013FA002002F010FAAA
:104C7000B12002F019FA802002F00AFA002002F0B6
:104C800007FA8B2002F004FA002002F001FA9620C5
:104C900002F0FEF9002002F0FBF9B22002F004FA63
:104CA000002002F0F5F9002002F0F2F9022002F0F3
:104CB000EFF9002002F0ECF9032002F0E9F90020FE
:104CC00002F0E6F9B32002F0EFF9002002F0E0F97B
:104CD000002002F0DDF9002002F0DAF9002002F0F5
:104CE000D7F9002002F0D4F9002002F0D1F9002019
:104CF00002F0CEF9002002F0CBF9002002F0C8F952
:104D0000002002F0C5F9002002F0C2F9002002F0F4
:104D1000BFF9002002F0BCF9002002F0B9F9002030
:104D200002F0B6F9002002F0B3F9002002F0B0F969
:104D3000002002F0ADF9002002F0AAF9002002F0F4
:104D4000A7F9002002F0A4F9002002F0A1F9002048
:104D500002F09EF9002002F09BF9B42002F0A4F9C1
:104D60008B2002F095F9002002F092F9962002F0D3
:104D70008FF9002002F08CF9A12002F089F90020BF
:104D800002F086F9B52002F08FF9022002F080F9D6
:104D9000002002F07DF9032002F07AF9002002F0F1
:104DA00077F9042002F074F9002002F071F9B620BE
:104DB00002F07AF9002002F06BF9002002F068F9A5
:104DC000B72002F071F9002002F062F9002002F031
:104DD0005FF93F2002F05CF9002002F059F95E20F3
:104DE00002F056F9002002F053F9642002F050F965
:104DF000002002F04DF98C2002F04AF9002002F068
:104E000047F9AC2002F044F9002002F041F9DC201F
:104E100002F03EF9002002F03BF9702002F038F970
:104E2000002002F035F9902002F032F9002002F063
:104E30002FF9EB2002F02CF9002002F029F9DC20F8
:104E400002F026F9002002F023F9B82002F02CF934
:104E5000002002F01DF9002002F01AF9002002F0F3
:104E600017F9002002F014F9002002F011F90020D7
:104E700002F00EF9002002F00BF9002002F008F910
:104E8000BA2002F011F9242002F002F9002002F009
:104E9000FFF8002002F0FCF8002002F0F9F8C12031
:104EA00002F002F9202002F0F3F8002002F0F0F8FE
:104EB000542002F0EDF8002002F0EAF8FF2002F0A2
:104EC000E7F8002002F0E4F8C22002F0EDF80A2032
:104ED00002F0DEF8002002F0DBF8042002F0D8F83F
:104EE000002002F0D5F8C32002F0DEF83C2002F0EA
:104EF000CFF8002002F0CCF83A2002F0C9F80020E8
:104F000002F0C6F8392002F0C3F8002002F0C0F821
:104F1000372002F0BDF8002002F0BAF83C2002F081
:104F2000B7F8002002F0B4F8362002F0B1F8002003
:104F300002F0AEF8322002F0ABF8002002F0A8F840
:104F40002F2002F0A5F8002002F0A2F82C2002F099
:104F50009FF8002002F09CF8292002F099F8002028
:104F600002F096F8262002F093F8002002F090F864
:104F7000242002F08DF8002002F08AF8242002F0AC
:104F800087F8002002F084F8232002F081F8002046
:104F900002F07EF83C2002F07BF8002002F078F866
:104FA000362002F075F8002002F072F8322002F08C
:104FB0006FF8002002F06CF82F2002F069F8002052
:104FC00002F066F82C2002F063F8002002F060F88E
:104FD000292002F05DF8002002F05AF8262002F0A5
:104FE00057F8002002F054F8242002F051F8002075
:104FF00002F04EF8242002F04BF8002002F048F8AE
:10500000232002F045F8002002F042F8C42002F00C
:105010004BF8622002F03CF8002002F039F805203D
:1050200002F036F8002002F033F8842002F030F865
:10503000002002F02DF8F02002F02AF8002002F003
:1050400027F8182002F024F8002002F021F8A4200C
:1050500002F01EF8002002F01BF8182002F018F8E9
:10506000002002F015F8502002F012F8002002F0A3
:105070000FF80C2002F00CF8002002F009F81720BD
:1050800002F006F8002002F003F8952002F000F884
:10509000002001F0FDFFF32001F0FAFF002001F0F5
:1050A000F7FFE62001F0F4FF002001F0F1FFC5203A
:1050B00001F0FAFF322001F0EBFF002001F0E8FFE1
:1050C000442001F0E5FF002001F0E2FF652001F03F
:1050D000DFFF002001F0DCFF762001F0D9FF002087
:1050E00001F0D6FF882001F0D3FF002001F0D0FFAF
:1050F000C62001F0D9FF202001F0CAFF002001F0F6
:10510000C7FF172001F0C4FF002001F0C1FF0120FC
:1051100001F0BEFF002001F0BBFFC72001F0C4FF7B
:10512000002001F0B5FF002001F0B2FF002001F0E7
:10513000AFFF002001F0ACFFC82001F0B5FF002058
:1051400001F0A6FF002001F0A3FF002001F0A0FF66
:10515000002001F09DFFC92001F0A6FF002001F012
:1051600097FF002001F094FF002001F091FF002044
:1051700001F08EFF002001F08BFF002001F088FF7E
:10518000002001F085FF002001F082FF002001F0E7
:105190007FFF002001F07CFF002001F079FF00205C
:1051A00001F076FF002001F073FF002001F070FF96
:1051B000002001F06DFF002001F06AFFE02001F007
:1051C00073FF162001F064FF002001F061FF1C2036
:1051D00001F05EFF002001F05BFF212001F058FF8D
:1051E000002001F055FF362001F052FF002001F0B1
:1051F0004FFF462001F04CFF002001F049FF5220F4
:1052000001F046FF002001F043FF642001F040FF61
:10521000002001F03DFF7A2001F03AFF002001F06C
:1052200037FF8B2001F034FF002001F031FF99207F
:1052300001F02EFF002001F02BFFA82001F028FF35
:10524000002001F025FFB92001F022FF002001F02D
:105250001FFFC42001F01CFF002001F019FFCA202D
:1052600001F016FF002001F013FFD22001F010FF23
:10527000002001F00DFFD92001F00AFF002001F00D
:1052800007FFE02001F004FF002001F001FFF32000
:1052900001F0FEFE002001F0FBFEE12001F004FF22
:1052A000162001F0F5FE002001F0F2FE1C2001F0B6
:1052B000EFFE002001F0ECFE222001F0E9FE0020CC
:1052C00001F0E6FE362001F0E3FE002001F0E0FEF2
:1052D000452001F0DDFE002001F0DAFE522001F051
:1052E000D7FE002001F0D4FE642001F0D1FE0020A2
:1052F00001F0CEFE7A2001F0CBFE002001F0C8FEC6
:105300008B2001F0C5FE002001F0C2FE992001F0C3
:10531000BFFE002001F0BCFEA82001F0B9FE002075
:1053200001F0B6FEB92001F0B3FE002001F0B0FE9E
:10533000C42001F0ADFE002001F0AAFECA2001F059
:10534000A7FE002001F0A4FED22001F0A1FE002063
:1053500001F09EFED82001F09BFE002001F098FE97
:10536000E02001F095FE002001F092FEF32001F014
:105370008FFE002001F08CFEE22001F095FE05205A
:1053800001F086FE002001F083FE0B2001F080FE7C
:10539000002001F07DFE1B2001F07AFE002001F0CC
:1053A00077FE342001F074FE002001F071FE4420ED
:1053B00001F06EFE002001F06BFE4F2001F068FE50
:1053C000002001F065FE612001F062FE002001F086
:1053D0005FFE792001F05CFE002001F059FE88207C
:1053E00001F056FE002001F053FE972001F050FE20
:1053F000002001F04DFEA62001F04AFE002001F041
:1054000047FEB72001F044FE002001F041FEC2201B
:1054100001F03EFE002001F03BFEC72001F038FE07
:10542000002001F035FED12001F032FE002001F015
:105430002FFED62001F02CFE002001F029FEDD20F9
:1054400001F026FE002001F023FEF32001F020FEF3
:10545000002001F01DFE00E010E3E32001F024FE37
:10546000052001F015FE002001F012FE0A2001F0D7
:105470000FFE002001F00CFE1C2001F009FE0020B0
:1054800001F006FE332001F003FE002001F000FED3
:10549000442001F0FDFD002001F0FAFD502001F054
:1054A000F7FD002001F0F4FD622001F0F1FD002085
:1054B00001F0EEFD782001F0EBFD002001F0E8FDA9
:1054C000882001F0E5FD002001F0E2FD972001F0C9
:1054D000DFFD002001F0DCFDA62001F0D9FD002059
:1054E00001F0D6FDB72001F0D3FD002001F0D0FD82
:1054F000C22001F0CDFD002001F0CAFDC72001F05F
:10550000C7FD002001F0C4FDD12001F0C1FD002045
:1055100001F0BEFDD52001F0BBFD002001F0B8FD7B
:10552000DD2001F0B5FD002001F0B2FDF32001F017
:10553000AFFD002001F0ACFDE42001F0B5FD01203D
:1055400001F0A6FD002001F0A3FD012001F0A0FD67
:10555000002001F09DFD022001F09AFD002001F0E5
:1055600097FD2A2001F094FD002001F091FD3C20E0
:1055700001F08EFD002001F08BFD4B2001F088FD35
:10558000002001F085FD5D2001F082FD002001F08A
:105590007FFD742001F07CFD002001F079FD842066
:1055A00001F076FD002001F073FD932001F070FD05
:1055B000002001F06DFDA22001F06AFD002001F045
:1055C00067FDB32001F064FD002001F061FDBE2005
:1055D00001F05EFD002001F05BFDC42001F058FDEC
:1055E000002001F055FDCD2001F052FD002001F01A
:1055F0004FFDD32001F04CFD002001F049FDDD20DE
:1056000001F046FD002001F043FDF32001F040FDD4
:10561000002001F03DFDE52001F046FD002001F0F5
:1056200037FD002001F034FD002001F031FD0020A5
:1056300001F02EFD022001F02BFD002001F028FDDD
:10564000292001F025FD002001F022FD3C2001F081
:105650001FFD002001F01CFD4B2001F019FD002072
:1056600001F016FD5D2001F013FD002001F010FD9A
:10567000742001F00DFD002001F00AFD842001F0EE
:1056800007FD002001F004FD932001F001FD002042
:1056900001F0FEFCA22001F0FBFC002001F0F8FC70
:1056A000B32001F0F5FC002001F0F2FCBE2001F077
:1056B000EFFC002001F0ECFCC42001F0E9FC00202C
:1056C00001F0E6FCCD2001F0E3FC002001F0E0FC5D
:1056D000D32001F0DDFC002001F0DAFCDC2001F039
:1056E000D7FC002001F0D4FCF32001F0D1FC002015
:1056F00001F0CEFCE62001F0D7FC112001F0C8FC3F
:10570000002001F0C5FC342001F0C2FC002001F0B3
:10571000BFFC562001F0BCFC002001F0B9FC762053
:1057200001F0B6FC002001F0B3FC772001F0B0FCE2
:10573000002001F0ADFC662001F0AAFC002001F081
:10574000A7FC882001F0A4FC002001F0A1FC992016
:1057500001F09EFC002001F09BFCBB2001F098FCB6
:10576000002001F095FC992001F092FC002001F04E
:105770008FFC662001F08CFC002001F089FC552094
:1057800001F086FC002001F083FC552001F080FC34
:10579000002001F07DFC452001F07AFC002001F0A2
:1057A00077FC432001F074FC002001F071FC4420E0
:1057B00001F06EFC002001F06BFCE72001F074FCAE
:1057C000322001F065FC002001F062FC552001F060
:1057D0005FFC002001F05CFC762001F059FC002009
:1057E00001F056FC662001F053FC002001F050FC53
:1057F000672001F04DFC002001F04AFC672001F019
:1058000047FC002001F044FC872001F041FC00200F
:1058100001F03EFC992001F03BFC002001F038FC37
:10582000BB2001F035FC002001F032FC992001F092
:105830002FFC002001F02CFC772001F029FC002037
:1058400001F026FC442001F023FC002001F020FCA4
:10585000562001F01DFC002001F01AFC232001F06D
:1058600017FC002001F014FC332001F011FC002093
:1058700001F00EFC452001F00BFC002001F008FCBB
:10588000E82001F011FC002001F002FC002001F0F2
:10589000FFFB992001F0FCFB002001F0F9FB8720C1
:1058A00001F0F6FB002001F0F3FB882001F0F0FB93
:1058B000002001F0EDFB772001F0EAFB002001F071
:1058C000E7FB662001F0E4FB002001F0E1FB88200B
:1058D00001F0DEFB002001F0DBFBAA2001F0D8FB89
:1058E000002001F0D5FBBB2001F0D2FB002001F02D
:1058F000CFFB992001F0CCFB002001F0C9FB662012
:1059000001F0C6FB002001F0C3FB552001F0C0FBF5
:10591000002001F0BDFB552001F0BAFB002001F092
:10592000B7FB442001F0B4FB002001F0B1FB4420A0
:1059300001F0AEFB002001F0ABFB552001F0A8FB0D
:10594000002001F0A5FBE92001F0AEFBAA2001F048
:105950009FFB002001F09CFB002001F099FB002040
:1059600001F096FB002001F09FFBAA2001F090FBC4
:10597000CF2001F099FB002001F08AFB002001F00C
:1059800087FB002001F084FB002001F081FB002058
:1059900001F07EFB002001F07BFB002001F078FB92
:1059A000002001F075FB002001F072FB002001F0E7
:1059B0006FFB002001F06CFB002001F069FB002070
:1059C00001F066FB002001F063FB002001F060FBAA
:1059D000002001F05DFB002001F05AFBF02001F0F7
:1059E00063FB002001F054FB502001F051FB00202C
:1059F00001F04EFB002001F04BFB002001F048FBC2
:105A0000F32001F051FB002001F042FBF92001F0EE
:105A10004BFB062001F03CFB102001F039FB292054
:105A200001F036FB002001F033FB3A2001F03CFB93
:105A3000552001F02DFB112001F036FB642004F00D
:105A40001FFB292001F030FB352001F02DFB002049
:105A500001F01EFB512001F027FBFF2001F018FB95
:105A6000532001F021FB2C2001F012FB552001F006
:105A70001BFB822001F00CFB2C20FDE3A0427DD11A
:105A80004FF470435521184601F024FB4FF20107F3
:105A9000AA21384601F01EFB5221781C01F01AFBA6
:105AA0000821B81C01F016FB0121F81C01F012FBC3
:105AB0000D214FF4304001F00DFB0D214BF20100A0
:105AC00001F008FB0D214BF2020001F003FB342131
:105AD0004FF4364001F0FEFA34214BF2016001F040
